{
  "_format": "hh-sol-artifact-1",
  "contractName": "WrappedBCT",
  "sourceName": "contracts/WrappedBCT.sol",
  "abi": [
    {
      "inputs": [
        {
          "internalType": "address",
          "name": "_wrappedToken",
          "type": "address"
        },
        {
          "internalType": "uint256",
          "name": "_tokenId",
          "type": "uint256"
        }
      ],
      "stateMutability": "nonpayable",
      "type": "constructor"
    },
    {
      "anonymous": false,
      "inputs": [
        {
          "indexed": true,
          "internalType": "address",
          "name": "owner",
          "type": "address"
        },
        {
          "indexed": true,
          "internalType": "address",
          "name": "spender",
          "type": "address"
        },
        {
          "indexed": false,
          "internalType": "uint256",
          "name": "value",
          "type": "uint256"
        }
      ],
      "name": "Approval",
      "type": "event"
    },
    {
      "anonymous": false,
      "inputs": [
        {
          "indexed": true,
          "internalType": "address",
          "name": "previousOwner",
          "type": "address"
        },
        {
          "indexed": true,
          "internalType": "address",
          "name": "newOwner",
          "type": "address"
        }
      ],
      "name": "OwnershipTransferred",
      "type": "event"
    },
    {
      "anonymous": false,
      "inputs": [
        {
          "indexed": true,
          "internalType": "address",
          "name": "from",
          "type": "address"
        },
        {
          "indexed": true,
          "internalType": "address",
          "name": "to",
          "type": "address"
        },
        {
          "indexed": false,
          "internalType": "uint256",
          "name": "value",
          "type": "uint256"
        }
      ],
      "name": "Transfer",
      "type": "event"
    },
    {
      "inputs": [
        {
          "internalType": "address",
          "name": "owner",
          "type": "address"
        },
        {
          "internalType": "address",
          "name": "spender",
          "type": "address"
        }
      ],
      "name": "allowance",
      "outputs": [
        {
          "internalType": "uint256",
          "name": "",
          "type": "uint256"
        }
      ],
      "stateMutability": "view",
      "type": "function"
    },
    {
      "inputs": [
        {
          "internalType": "address",
          "name": "spender",
          "type": "address"
        },
        {
          "internalType": "uint256",
          "name": "amount",
          "type": "uint256"
        }
      ],
      "name": "approve",
      "outputs": [
        {
          "internalType": "bool",
          "name": "",
          "type": "bool"
        }
      ],
      "stateMutability": "nonpayable",
      "type": "function"
    },
    {
      "inputs": [
        {
          "internalType": "address",
          "name": "account",
          "type": "address"
        }
      ],
      "name": "balanceOf",
      "outputs": [
        {
          "internalType": "uint256",
          "name": "",
          "type": "uint256"
        }
      ],
      "stateMutability": "view",
      "type": "function"
    },
    {
      "inputs": [],
      "name": "decimals",
      "outputs": [
        {
          "internalType": "uint8",
          "name": "",
          "type": "uint8"
        }
      ],
      "stateMutability": "view",
      "type": "function"
    },
    {
      "inputs": [
        {
          "internalType": "address",
          "name": "spender",
          "type": "address"
        },
        {
          "internalType": "uint256",
          "name": "subtractedValue",
          "type": "uint256"
        }
      ],
      "name": "decreaseAllowance",
      "outputs": [
        {
          "internalType": "bool",
          "name": "",
          "type": "bool"
        }
      ],
      "stateMutability": "nonpayable",
      "type": "function"
    },
    {
      "inputs": [],
      "name": "getTokenId",
      "outputs": [
        {
          "internalType": "uint256",
          "name": "",
          "type": "uint256"
        }
      ],
      "stateMutability": "view",
      "type": "function"
    },
    {
      "inputs": [
        {
          "internalType": "address",
          "name": "spender",
          "type": "address"
        },
        {
          "internalType": "uint256",
          "name": "addedValue",
          "type": "uint256"
        }
      ],
      "name": "increaseAllowance",
      "outputs": [
        {
          "internalType": "bool",
          "name": "",
          "type": "bool"
        }
      ],
      "stateMutability": "nonpayable",
      "type": "function"
    },
    {
      "inputs": [],
      "name": "name",
      "outputs": [
        {
          "internalType": "string",
          "name": "",
          "type": "string"
        }
      ],
      "stateMutability": "view",
      "type": "function"
    },
    {
      "inputs": [],
      "name": "owner",
      "outputs": [
        {
          "internalType": "address",
          "name": "",
          "type": "address"
        }
      ],
      "stateMutability": "view",
      "type": "function"
    },
    {
      "inputs": [],
      "name": "renounceOwnership",
      "outputs": [],
      "stateMutability": "nonpayable",
      "type": "function"
    },
    {
      "inputs": [],
      "name": "symbol",
      "outputs": [
        {
          "internalType": "string",
          "name": "",
          "type": "string"
        }
      ],
      "stateMutability": "view",
      "type": "function"
    },
    {
      "inputs": [],
      "name": "tokenId",
      "outputs": [
        {
          "internalType": "uint256",
          "name": "",
          "type": "uint256"
        }
      ],
      "stateMutability": "view",
      "type": "function"
    },
    {
      "inputs": [],
      "name": "totalSupply",
      "outputs": [
        {
          "internalType": "uint256",
          "name": "",
          "type": "uint256"
        }
      ],
      "stateMutability": "view",
      "type": "function"
    },
    {
      "inputs": [
        {
          "internalType": "address",
          "name": "to",
          "type": "address"
        },
        {
          "internalType": "uint256",
          "name": "amount",
          "type": "uint256"
        }
      ],
      "name": "transfer",
      "outputs": [
        {
          "internalType": "bool",
          "name": "",
          "type": "bool"
        }
      ],
      "stateMutability": "nonpayable",
      "type": "function"
    },
    {
      "inputs": [
        {
          "internalType": "address",
          "name": "from",
          "type": "address"
        },
        {
          "internalType": "address",
          "name": "to",
          "type": "address"
        },
        {
          "internalType": "uint256",
          "name": "amount",
          "type": "uint256"
        }
      ],
      "name": "transferFrom",
      "outputs": [
        {
          "internalType": "bool",
          "name": "",
          "type": "bool"
        }
      ],
      "stateMutability": "nonpayable",
      "type": "function"
    },
    {
      "inputs": [
        {
          "internalType": "address",
          "name": "newOwner",
          "type": "address"
        }
      ],
      "name": "transferOwnership",
      "outputs": [],
      "stateMutability": "nonpayable",
      "type": "function"
    },
    {
      "inputs": [
        {
          "internalType": "address",
          "name": "user",
          "type": "address"
        },
        {
          "internalType": "uint256",
          "name": "amount",
          "type": "uint256"
        }
      ],
      "name": "unwrap",
      "outputs": [],
      "stateMutability": "nonpayable",
      "type": "function"
    },
    {
      "inputs": [
        {
          "internalType": "address",
          "name": "user",
          "type": "address"
        },
        {
          "internalType": "uint256",
          "name": "amount",
          "type": "uint256"
        }
      ],
      "name": "wrap",
      "outputs": [],
      "stateMutability": "nonpayable",
      "type": "function"
    },
    {
      "inputs": [],
      "name": "wrappedToken",
      "outputs": [
        {
          "internalType": "contract IERC20",
          "name": "",
          "type": "address"
        }
      ],
      "stateMutability": "view",
      "type": "function"
    }
  ],
  "bytecode": "0x60806040523480156200001157600080fd5b5060405162002335380380620023358339818101604052810190620000379190620002f3565b6040518060400160405280600a81526020017f57726170706564424354000000000000000000000000000000000000000000008152506040518060400160405280600481526020017f57424354000000000000000000000000000000000000000000000000000000008152508160039080519060200190620000bb92919062000215565b508060049080519060200190620000d492919062000215565b505050620000f7620000eb6200014760201b60201c565b6200014f60201b60201c565b81600660006101000a81548173ffffffffffffffffffffffffffffffffffffffff021916908373ffffffffffffffffffffffffffffffffffffffff1602179055508060078190555050506200040b565b600033905090565b6000600560009054906101000a900473ffffffffffffffffffffffffffffffffffffffff16905081600560006101000a81548173ffffffffffffffffffffffffffffffffffffffff021916908373ffffffffffffffffffffffffffffffffffffffff1602179055508173ffffffffffffffffffffffffffffffffffffffff168173ffffffffffffffffffffffffffffffffffffffff167f8be0079c531659141344cd1fd0a4f28419497f9722a3daafe3b4186f6b6457e060405160405180910390a35050565b828054620002239062000372565b90600052602060002090601f01602090048101928262000247576000855562000293565b82601f106200026257805160ff191683800117855562000293565b8280016001018555821562000293579182015b828111156200029257825182559160200191906001019062000275565b5b509050620002a29190620002a6565b5090565b5b80821115620002c1576000816000905550600101620002a7565b5090565b600081519050620002d681620003d7565b92915050565b600081519050620002ed81620003f1565b92915050565b600080604083850312156200030757600080fd5b60006200031785828601620002c5565b92505060206200032a85828601620002dc565b9150509250929050565b6000620003418262000348565b9050919050565b600073ffffffffffffffffffffffffffffffffffffffff82169050919050565b6000819050919050565b600060028204905060018216806200038b57607f821691505b60208210811415620003a257620003a1620003a8565b5b50919050565b7f4e487b7100000000000000000000000000000000000000000000000000000000600052602260045260246000fd5b620003e28162000334565b8114620003ee57600080fd5b50565b620003fc8162000368565b81146200040857600080fd5b50565b611f1a806200041b6000396000f3fe608060405234801561001057600080fd5b50600436106101215760003560e01c806370a08231116100ad578063a457c2d711610071578063a457c2d7146102fc578063a9059cbb1461032c578063bf376c7a1461035c578063dd62ed3e14610378578063f2fde38b146103a857610121565b806370a0823114610268578063715018a6146102985780638da5cb5b146102a257806395d89b41146102c0578063996c6cc3146102de57610121565b806318160ddd116100f457806318160ddd146101b057806323b872dd146101ce578063313ce567146101fe578063395093511461021c57806339f476931461024c57610121565b8063010a38f51461012657806306fdde0314610144578063095ea7b31461016257806317d70f7c14610192575b600080fd5b61012e6103c4565b60405161013b919061193f565b60405180910390f35b61014c6103ce565b604051610159919061177d565b60405180910390f35b61017c6004803603810190610177919061141c565b610460565b6040516101899190611747565b60405180910390f35b61019a610483565b6040516101a7919061193f565b60405180910390f35b6101b8610489565b6040516101c5919061193f565b60405180910390f35b6101e860048036038101906101e391906113cd565b610493565b6040516101f59190611747565b60405180910390f35b6102066104c2565b604051610213919061195a565b60405180910390f35b6102366004803603810190610231919061141c565b6104cb565b6040516102439190611747565b60405180910390f35b6102666004803603810190610261919061141c565b610502565b005b610282600480360381019061027d9190611368565b6105fe565b60405161028f919061193f565b60405180910390f35b6102a0610646565b005b6102aa61065a565b6040516102b791906116cc565b60405180910390f35b6102c8610684565b6040516102d5919061177d565b60405180910390f35b6102e6610716565b6040516102f39190611762565b60405180910390f35b6103166004803603810190610311919061141c565b61073c565b6040516103239190611747565b60405180910390f35b6103466004803603810190610341919061141c565b6107b3565b6040516103539190611747565b60405180910390f35b6103766004803603810190610371919061141c565b6107d6565b005b610392600480360381019061038d9190611391565b6108d4565b60405161039f919061193f565b60405180910390f35b6103c260048036038101906103bd9190611368565b61095b565b005b6000600754905090565b6060600380546103dd90611a93565b80601f016020809104026020016040519081016040528092919081815260200182805461040990611a93565b80156104565780601f1061042b57610100808354040283529160200191610456565b820191906000526020600020905b81548152906001019060200180831161043957829003601f168201915b5050505050905090565b60008061046b6109df565b90506104788185856109e7565b600191505092915050565b60075481565b6000600254905090565b60008061049e6109df565b90506104ab858285610bb2565b6104b6858585610c3e565b60019150509392505050565b60006012905090565b6000806104d66109df565b90506104f78185856104e885896108d4565b6104f29190611991565b6109e7565b600191505092915050565b61050c8282610eb6565b600660009054906101000a900473ffffffffffffffffffffffffffffffffffffffff1673ffffffffffffffffffffffffffffffffffffffff1663a9059cbb83836040518363ffffffff1660e01b815260040161056992919061171e565b602060405180830381600087803b15801561058357600080fd5b505af1158015610597573d6000803e3d6000fd5b505050506040513d601f19601f820116820180604052508101906105bb9190611458565b6105fa576040517f08c379a00000000000000000000000000000000000000000000000000000000081526004016105f19061189f565b60405180910390fd5b5050565b60008060008373ffffffffffffffffffffffffffffffffffffffff1673ffffffffffffffffffffffffffffffffffffffff168152602001908152602001600020549050919050565b61064e611084565b6106586000611102565b565b6000600560009054906101000a900473ffffffffffffffffffffffffffffffffffffffff16905090565b60606004805461069390611a93565b80601f01602080910402602001604051908101604052809291908181526020018280546106bf90611a93565b801561070c5780601f106106e15761010080835404028352916020019161070c565b820191906000526020600020905b8154815290600101906020018083116106ef57829003601f168201915b5050505050905090565b600660009054906101000a900473ffffffffffffffffffffffffffffffffffffffff1681565b6000806107476109df565b9050600061075582866108d4565b90508381101561079a576040517f08c379a0000000000000000000000000000000000000000000000000000000008152600401610791906118ff565b60405180910390fd5b6107a782868684036109e7565b60019250505092915050565b6000806107be6109df565b90506107cb818585610c3e565b600191505092915050565b600660009054906101000a900473ffffffffffffffffffffffffffffffffffffffff1673ffffffffffffffffffffffffffffffffffffffff166323b872dd8330846040518463ffffffff1660e01b8152600401610835939291906116e7565b602060405180830381600087803b15801561084f57600080fd5b505af1158015610863573d6000803e3d6000fd5b505050506040513d601f19601f820116820180604052508101906108879190611458565b6108c6576040517f08c379a00000000000000000000000000000000000000000000000000000000081526004016108bd9061189f565b60405180910390fd5b6108d082826111c8565b5050565b6000600160008473ffffffffffffffffffffffffffffffffffffffff1673ffffffffffffffffffffffffffffffffffffffff16815260200190815260200160002060008373ffffffffffffffffffffffffffffffffffffffff1673ffffffffffffffffffffffffffffffffffffffff16815260200190815260200160002054905092915050565b610963611084565b600073ffffffffffffffffffffffffffffffffffffffff168173ffffffffffffffffffffffffffffffffffffffff1614156109d3576040517f08c379a00000000000000000000000000000000000000000000000000000000081526004016109ca906117df565b60405180910390fd5b6109dc81611102565b50565b600033905090565b600073ffffffffffffffffffffffffffffffffffffffff168373ffffffffffffffffffffffffffffffffffffffff161415610a57576040517f08c379a0000000000000000000000000000000000000000000000000000000008152600401610a4e906118df565b60405180910390fd5b600073ffffffffffffffffffffffffffffffffffffffff168273ffffffffffffffffffffffffffffffffffffffff161415610ac7576040517f08c379a0000000000000000000000000000000000000000000000000000000008152600401610abe906117ff565b60405180910390fd5b80600160008573ffffffffffffffffffffffffffffffffffffffff1673ffffffffffffffffffffffffffffffffffffffff16815260200190815260200160002060008473ffffffffffffffffffffffffffffffffffffffff1673ffffffffffffffffffffffffffffffffffffffff168152602001908152602001600020819055508173ffffffffffffffffffffffffffffffffffffffff168373ffffffffffffffffffffffffffffffffffffffff167f8c5be1e5ebec7d5bd14f71427d1e84f3dd0314c0f7b2291e5b200ac8c7c3b92583604051610ba5919061193f565b60405180910390a3505050565b6000610bbe84846108d4565b90507fffffffffffffffffffffffffffffffffffffffffffffffffffffffffffffffff8114610c385781811015610c2a576040517f08c379a0000000000000000000000000000000000000000000000000000000008152600401610c219061181f565b60405180910390fd5b610c3784848484036109e7565b5b50505050565b600073ffffffffffffffffffffffffffffffffffffffff168373ffffffffffffffffffffffffffffffffffffffff161415610cae576040517f08c379a0000000000000000000000000000000000000000000000000000000008152600401610ca5906118bf565b60405180910390fd5b600073ffffffffffffffffffffffffffffffffffffffff168273ffffffffffffffffffffffffffffffffffffffff161415610d1e576040517f08c379a0000000000000000000000000000000000000000000000000000000008152600401610d159061179f565b60405180910390fd5b610d2983838361131f565b60008060008573ffffffffffffffffffffffffffffffffffffffff1673ffffffffffffffffffffffffffffffffffffffff16815260200190815260200160002054905081811015610daf576040517f08c379a0000000000000000000000000000000000000000000000000000000008152600401610da69061183f565b60405180910390fd5b8181036000808673ffffffffffffffffffffffffffffffffffffffff1673ffffffffffffffffffffffffffffffffffffffff16815260200190815260200160002081905550816000808573ffffffffffffffffffffffffffffffffffffffff1673ffffffffffffffffffffffffffffffffffffffff168152602001908152602001600020600082825401925050819055508273ffffffffffffffffffffffffffffffffffffffff168473ffffffffffffffffffffffffffffffffffffffff167fddf252ad1be2c89b69c2b068fc378daa952ba7f163c4a11628f55a4df523b3ef84604051610e9d919061193f565b60405180910390a3610eb0848484611324565b50505050565b600073ffffffffffffffffffffffffffffffffffffffff168273ffffffffffffffffffffffffffffffffffffffff161415610f26576040517f08c379a0000000000000000000000000000000000000000000000000000000008152600401610f1d9061187f565b60405180910390fd5b610f328260008361131f565b60008060008473ffffffffffffffffffffffffffffffffffffffff1673ffffffffffffffffffffffffffffffffffffffff16815260200190815260200160002054905081811015610fb8576040517f08c379a0000000000000000000000000000000000000000000000000000000008152600401610faf906117bf565b60405180910390fd5b8181036000808573ffffffffffffffffffffffffffffffffffffffff1673ffffffffffffffffffffffffffffffffffffffff1681526020019081526020016000208190555081600260008282540392505081905550600073ffffffffffffffffffffffffffffffffffffffff168373ffffffffffffffffffffffffffffffffffffffff167fddf252ad1be2c89b69c2b068fc378daa952ba7f163c4a11628f55a4df523b3ef8460405161106b919061193f565b60405180910390a361107f83600084611324565b505050565b61108c6109df565b73ffffffffffffffffffffffffffffffffffffffff166110aa61065a565b73ffffffffffffffffffffffffffffffffffffffff1614611100576040517f08c379a00000000000000000000000000000000000000000000000000000000081526004016110f79061185f565b60405180910390fd5b565b6000600560009054906101000a900473ffffffffffffffffffffffffffffffffffffffff16905081600560006101000a81548173ffffffffffffffffffffffffffffffffffffffff021916908373ffffffffffffffffffffffffffffffffffffffff1602179055508173ffffffffffffffffffffffffffffffffffffffff168173ffffffffffffffffffffffffffffffffffffffff167f8be0079c531659141344cd1fd0a4f28419497f9722a3daafe3b4186f6b6457e060405160405180910390a35050565b600073ffffffffffffffffffffffffffffffffffffffff168273ffffffffffffffffffffffffffffffffffffffff161415611238576040517f08c379a000000000000000000000000000000000000000000000000000000000815260040161122f9061191f565b60405180910390fd5b6112446000838361131f565b80600260008282546112569190611991565b92505081905550806000808473ffffffffffffffffffffffffffffffffffffffff1673ffffffffffffffffffffffffffffffffffffffff168152602001908152602001600020600082825401925050819055508173ffffffffffffffffffffffffffffffffffffffff16600073ffffffffffffffffffffffffffffffffffffffff167fddf252ad1be2c89b69c2b068fc378daa952ba7f163c4a11628f55a4df523b3ef83604051611307919061193f565b60405180910390a361131b60008383611324565b5050565b505050565b505050565b60008135905061133881611e9f565b92915050565b60008151905061134d81611eb6565b92915050565b60008135905061136281611ecd565b92915050565b60006020828403121561137a57600080fd5b600061138884828501611329565b91505092915050565b600080604083850312156113a457600080fd5b60006113b285828601611329565b92505060206113c385828601611329565b9150509250929050565b6000806000606084860312156113e257600080fd5b60006113f086828701611329565b935050602061140186828701611329565b925050604061141286828701611353565b9150509250925092565b6000806040838503121561142f57600080fd5b600061143d85828601611329565b925050602061144e85828601611353565b9150509250929050565b60006020828403121561146a57600080fd5b60006114788482850161133e565b91505092915050565b61148a816119e7565b82525050565b611499816119f9565b82525050565b6114a881611a3c565b82525050565b60006114b982611975565b6114c38185611980565b93506114d3818560208601611a60565b6114dc81611b23565b840191505092915050565b60006114f4602383611980565b91506114ff82611b34565b604082019050919050565b6000611517602283611980565b915061152282611b83565b604082019050919050565b600061153a602683611980565b915061154582611bd2565b604082019050919050565b600061155d602283611980565b915061156882611c21565b604082019050919050565b6000611580601d83611980565b915061158b82611c70565b602082019050919050565b60006115a3602683611980565b91506115ae82611c99565b604082019050919050565b60006115c6602083611980565b91506115d182611ce8565b602082019050919050565b60006115e9602183611980565b91506115f482611d11565b604082019050919050565b600061160c601b83611980565b915061161782611d60565b602082019050919050565b600061162f602583611980565b915061163a82611d89565b604082019050919050565b6000611652602483611980565b915061165d82611dd8565b604082019050919050565b6000611675602583611980565b915061168082611e27565b604082019050919050565b6000611698601f83611980565b91506116a382611e76565b602082019050919050565b6116b781611a25565b82525050565b6116c681611a2f565b82525050565b60006020820190506116e16000830184611481565b92915050565b60006060820190506116fc6000830186611481565b6117096020830185611481565b61171660408301846116ae565b949350505050565b60006040820190506117336000830185611481565b61174060208301846116ae565b9392505050565b600060208201905061175c6000830184611490565b92915050565b6000602082019050611777600083018461149f565b92915050565b6000602082019050818103600083015261179781846114ae565b905092915050565b600060208201905081810360008301526117b8816114e7565b9050919050565b600060208201905081810360008301526117d88161150a565b9050919050565b600060208201905081810360008301526117f88161152d565b9050919050565b6000602082019050818103600083015261181881611550565b9050919050565b6000602082019050818103600083015261183881611573565b9050919050565b6000602082019050818103600083015261185881611596565b9050919050565b60006020820190508181036000830152611878816115b9565b9050919050565b60006020820190508181036000830152611898816115dc565b9050919050565b600060208201905081810360008301526118b8816115ff565b9050919050565b600060208201905081810360008301526118d881611622565b9050919050565b600060208201905081810360008301526118f881611645565b9050919050565b6000602082019050818103600083015261191881611668565b9050919050565b600060208201905081810360008301526119388161168b565b9050919050565b600060208201905061195460008301846116ae565b92915050565b600060208201905061196f60008301846116bd565b92915050565b600081519050919050565b600082825260208201905092915050565b600061199c82611a25565b91506119a783611a25565b9250827fffffffffffffffffffffffffffffffffffffffffffffffffffffffffffffffff038211156119dc576119db611ac5565b5b828201905092915050565b60006119f282611a05565b9050919050565b60008115159050919050565b600073ffffffffffffffffffffffffffffffffffffffff82169050919050565b6000819050919050565b600060ff82169050919050565b6000611a4782611a4e565b9050919050565b6000611a5982611a05565b9050919050565b60005b83811015611a7e578082015181840152602081019050611a63565b83811115611a8d576000848401525b50505050565b60006002820490506001821680611aab57607f821691505b60208210811415611abf57611abe611af4565b5b50919050565b7f4e487b7100000000000000000000000000000000000000000000000000000000600052601160045260246000fd5b7f4e487b7100000000000000000000000000000000000000000000000000000000600052602260045260246000fd5b6000601f19601f8301169050919050565b7f45524332303a207472616e7366657220746f20746865207a65726f206164647260008201527f6573730000000000000000000000000000000000000000000000000000000000602082015250565b7f45524332303a206275726e20616d6f756e7420657863656564732062616c616e60008201527f6365000000000000000000000000000000000000000000000000000000000000602082015250565b7f4f776e61626c653a206e6577206f776e657220697320746865207a65726f206160008201527f6464726573730000000000000000000000000000000000000000000000000000602082015250565b7f45524332303a20617070726f766520746f20746865207a65726f20616464726560008201527f7373000000000000000000000000000000000000000000000000000000000000602082015250565b7f45524332303a20696e73756666696369656e7420616c6c6f77616e6365000000600082015250565b7f45524332303a207472616e7366657220616d6f756e742065786365656473206260008201527f616c616e63650000000000000000000000000000000000000000000000000000602082015250565b7f4f776e61626c653a2063616c6c6572206973206e6f7420746865206f776e6572600082015250565b7f45524332303a206275726e2066726f6d20746865207a65726f2061646472657360008201527f7300000000000000000000000000000000000000000000000000000000000000602082015250565b7f577261707065644243543a205472616e73666572206661696c65640000000000600082015250565b7f45524332303a207472616e736665722066726f6d20746865207a65726f20616460008201527f6472657373000000000000000000000000000000000000000000000000000000602082015250565b7f45524332303a20617070726f76652066726f6d20746865207a65726f2061646460008201527f7265737300000000000000000000000000000000000000000000000000000000602082015250565b7f45524332303a2064656372656173656420616c6c6f77616e63652062656c6f7760008201527f207a65726f000000000000000000000000000000000000000000000000000000602082015250565b7f45524332303a206d696e7420746f20746865207a65726f206164647265737300600082015250565b611ea8816119e7565b8114611eb357600080fd5b50565b611ebf816119f9565b8114611eca57600080fd5b50565b611ed681611a25565b8114611ee157600080fd5b5056fea26469706673582212202f8f1933f084742b36b85bde57de2313216d8e8001923c62a6e2cc04572c61ba64736f6c63430008040033",
  "linkReferences": {},
  "deployedLinkReferences": {}
}