{
  "_format": "hh-sol-artifact-1",
  "contractName": "Marketplace",
  "sourceName": "contracts/MarketplaceContract.sol",
  "abi": [
    {
      "inputs": [
        {
          "internalType": "address",
          "name": "_erc1155Token",
          "type": "address"
        },
        {
          "internalType": "address",
          "name": "_trxToken",
          "type": "address"
        },
        {
          "internalType": "address",
          "name": "_usdtToken",
          "type": "address"
        }
      ],
      "stateMutability": "nonpayable",
      "type": "constructor"
    },
    {
      "anonymous": false,
      "inputs": [
        {
          "indexed": true,
          "internalType": "uint256",
          "name": "listingId",
          "type": "uint256"
        },
        {
          "indexed": true,
          "internalType": "address",
          "name": "seller",
          "type": "address"
        },
        {
          "indexed": true,
          "internalType": "uint256",
          "name": "tokenId",
          "type": "uint256"
        },
        {
          "indexed": false,
          "internalType": "uint256",
          "name": "amount",
          "type": "uint256"
        }
      ],
      "name": "ListingCancelled",
      "type": "event"
    },
    {
      "anonymous": false,
      "inputs": [
        {
          "indexed": true,
          "internalType": "uint256",
          "name": "listingId",
          "type": "uint256"
        },
        {
          "indexed": true,
          "internalType": "address",
          "name": "buyer",
          "type": "address"
        },
        {
          "indexed": true,
          "internalType": "uint256",
          "name": "tokenId",
          "type": "uint256"
        },
        {
          "indexed": false,
          "internalType": "uint256",
          "name": "amount",
          "type": "uint256"
        }
      ],
      "name": "ListingPurchased",
      "type": "event"
    },
    {
      "anonymous": false,
      "inputs": [
        {
          "indexed": true,
          "internalType": "uint256",
          "name": "listingId",
          "type": "uint256"
        },
        {
          "indexed": true,
          "internalType": "address",
          "name": "seller",
          "type": "address"
        },
        {
          "indexed": true,
          "internalType": "uint256",
          "name": "tokenId",
          "type": "uint256"
        },
        {
          "indexed": false,
          "internalType": "uint256",
          "name": "amount",
          "type": "uint256"
        },
        {
          "indexed": false,
          "internalType": "uint256",
          "name": "pricePerToken",
          "type": "uint256"
        },
        {
          "indexed": false,
          "internalType": "bool",
          "name": "isTRX",
          "type": "bool"
        }
      ],
      "name": "NewListing",
      "type": "event"
    },
    {
      "inputs": [
        {
          "internalType": "uint256",
          "name": "listingId",
          "type": "uint256"
        },
        {
          "internalType": "uint256",
          "name": "amount",
          "type": "uint256"
        }
      ],
      "name": "buyListing",
      "outputs": [],
      "stateMutability": "nonpayable",
      "type": "function"
    },
    {
      "inputs": [
        {
          "internalType": "uint256",
          "name": "listingId",
          "type": "uint256"
        }
      ],
      "name": "cancelListing",
      "outputs": [],
      "stateMutability": "nonpayable",
      "type": "function"
    },
    {
      "inputs": [
        {
          "internalType": "uint256",
          "name": "tokenId",
          "type": "uint256"
        },
        {
          "internalType": "uint256",
          "name": "amount",
          "type": "uint256"
        },
        {
          "internalType": "uint256",
          "name": "pricePerToken",
          "type": "uint256"
        },
        {
          "internalType": "bool",
          "name": "isTRX",
          "type": "bool"
        }
      ],
      "name": "createListing",
      "outputs": [],
      "stateMutability": "nonpayable",
      "type": "function"
    },
    {
      "inputs": [],
      "name": "erc1155Token",
      "outputs": [
        {
          "internalType": "contract IERC1155",
          "name": "",
          "type": "address"
        }
      ],
      "stateMutability": "view",
      "type": "function"
    },
    {
      "inputs": [
        {
          "internalType": "uint256",
          "name": "listingId",
          "type": "uint256"
        }
      ],
      "name": "getListing",
      "outputs": [
        {
          "components": [
            {
              "internalType": "address",
              "name": "seller",
              "type": "address"
            },
            {
              "internalType": "uint256",
              "name": "tokenId",
              "type": "uint256"
            },
            {
              "internalType": "uint256",
              "name": "amount",
              "type": "uint256"
            },
            {
              "internalType": "uint256",
              "name": "pricePerToken",
              "type": "uint256"
            },
            {
              "internalType": "bool",
              "name": "isTRX",
              "type": "bool"
            }
          ],
          "internalType": "struct Marketplace.Listing",
          "name": "",
          "type": "tuple"
        }
      ],
      "stateMutability": "view",
      "type": "function"
    },
    {
      "inputs": [],
      "name": "getNextListingId",
      "outputs": [
        {
          "internalType": "uint256",
          "name": "",
          "type": "uint256"
        }
      ],
      "stateMutability": "view",
      "type": "function"
    },
    {
      "inputs": [
        {
          "internalType": "uint256",
          "name": "",
          "type": "uint256"
        }
      ],
      "name": "listings",
      "outputs": [
        {
          "internalType": "address",
          "name": "seller",
          "type": "address"
        },
        {
          "internalType": "uint256",
          "name": "tokenId",
          "type": "uint256"
        },
        {
          "internalType": "uint256",
          "name": "amount",
          "type": "uint256"
        },
        {
          "internalType": "uint256",
          "name": "pricePerToken",
          "type": "uint256"
        },
        {
          "internalType": "bool",
          "name": "isTRX",
          "type": "bool"
        }
      ],
      "stateMutability": "view",
      "type": "function"
    },
    {
      "inputs": [
        {
          "internalType": "address",
          "name": "",
          "type": "address"
        },
        {
          "internalType": "address",
          "name": "",
          "type": "address"
        },
        {
          "internalType": "uint256[]",
          "name": "",
          "type": "uint256[]"
        },
        {
          "internalType": "uint256[]",
          "name": "",
          "type": "uint256[]"
        },
        {
          "internalType": "bytes",
          "name": "",
          "type": "bytes"
        }
      ],
      "name": "onERC1155BatchReceived",
      "outputs": [
        {
          "internalType": "bytes4",
          "name": "",
          "type": "bytes4"
        }
      ],
      "stateMutability": "pure",
      "type": "function"
    },
    {
      "inputs": [
        {
          "internalType": "address",
          "name": "",
          "type": "address"
        },
        {
          "internalType": "address",
          "name": "",
          "type": "address"
        },
        {
          "internalType": "uint256",
          "name": "",
          "type": "uint256"
        },
        {
          "internalType": "uint256",
          "name": "",
          "type": "uint256"
        },
        {
          "internalType": "bytes",
          "name": "",
          "type": "bytes"
        }
      ],
      "name": "onERC1155Received",
      "outputs": [
        {
          "internalType": "bytes4",
          "name": "",
          "type": "bytes4"
        }
      ],
      "stateMutability": "pure",
      "type": "function"
    },
    {
      "inputs": [
        {
          "internalType": "bytes4",
          "name": "interfaceId",
          "type": "bytes4"
        }
      ],
      "name": "supportsInterface",
      "outputs": [
        {
          "internalType": "bool",
          "name": "",
          "type": "bool"
        }
      ],
      "stateMutability": "view",
      "type": "function"
    },
    {
      "inputs": [],
      "name": "trxToken",
      "outputs": [
        {
          "internalType": "contract IERC20",
          "name": "",
          "type": "address"
        }
      ],
      "stateMutability": "view",
      "type": "function"
    },
    {
      "inputs": [],
      "name": "usdtToken",
      "outputs": [
        {
          "internalType": "contract IERC20",
          "name": "",
          "type": "address"
        }
      ],
      "stateMutability": "view",
      "type": "function"
    }
  ],
  "bytecode": "0x608060405260016003553480156200001657600080fd5b5060405162001c2d38038062001c2d83398181016040528101906200003c91906200011e565b826000806101000a81548173ffffffffffffffffffffffffffffffffffffffff021916908373ffffffffffffffffffffffffffffffffffffffff16021790555081600160006101000a81548173ffffffffffffffffffffffffffffffffffffffff021916908373ffffffffffffffffffffffffffffffffffffffff16021790555080600260006101000a81548173ffffffffffffffffffffffffffffffffffffffff021916908373ffffffffffffffffffffffffffffffffffffffff160217905550505050620001c2565b6000815190506200011881620001a8565b92915050565b6000806000606084860312156200013457600080fd5b6000620001448682870162000107565b9350506020620001578682870162000107565b92505060406200016a8682870162000107565b9150509250925092565b6000620001818262000188565b9050919050565b600073ffffffffffffffffffffffffffffffffffffffff82169050919050565b620001b38162000174565b8114620001bf57600080fd5b50565b611a5b80620001d26000396000f3fe608060405234801561001057600080fd5b50600436106100b45760003560e01c80639444beea116100715780639444beea1461018d578063a98ad46c146101ab578063bc197c81146101c9578063de74e57b146101f9578063f23a6e611461022d578063fbac04af1461025d576100b4565b806301ffc9a7146100b9578063107a274a146100e957806321f4226814610119578063305a67a81461013757806339bbf609146101535780636d0ba1d314610171575b600080fd5b6100d360048036038101906100ce91906110de565b610279565b6040516100e09190611495565b60405180910390f35b61010360048036038101906100fe9190611107565b6102f3565b60405161011091906115c1565b60405180910390f35b6101216103af565b60405161012e91906114cb565b60405180910390f35b610151600480360381019061014c9190611107565b6103d3565b005b61015b6105da565b60405161016891906115dc565b60405180910390f35b61018b60048036038101906101869190611130565b6105e4565b005b610195610a5f565b6040516101a291906114e6565b60405180910390f35b6101b3610a85565b6040516101c091906114e6565b60405180910390f35b6101e360048036038101906101de9190610f57565b610aab565b6040516101f091906114b0565b60405180910390f35b610213600480360381019061020e9190611107565b610ac3565b604051610224959493929190611442565b60405180910390f35b61024760048036038101906102429190611023565b610b26565b60405161025491906114b0565b60405180910390f35b6102776004803603810190610272919061116c565b610b3c565b005b60007f4e2312e0000000000000000000000000000000000000000000000000000000007bffffffffffffffffffffffffffffffffffffffffffffffffffffffff1916827bffffffffffffffffffffffffffffffffffffffffffffffffffffffff191614806102ec57506102eb82610da9565b5b9050919050565b6102fb610e13565b600460008381526020019081526020016000206040518060a00160405290816000820160009054906101000a900473ffffffffffffffffffffffffffffffffffffffff1673ffffffffffffffffffffffffffffffffffffffff1673ffffffffffffffffffffffffffffffffffffffff1681526020016001820154815260200160028201548152602001600382015481526020016004820160009054906101000a900460ff1615151515815250509050919050565b60008054906101000a900473ffffffffffffffffffffffffffffffffffffffff1681565b60006004600083815260200190815260200160002090503373ffffffffffffffffffffffffffffffffffffffff168160000160009054906101000a900473ffffffffffffffffffffffffffffffffffffffff1673ffffffffffffffffffffffffffffffffffffffff161461047c576040517f08c379a0000000000000000000000000000000000000000000000000000000008152600401610473906115a1565b60405180910390fd5b60008054906101000a900473ffffffffffffffffffffffffffffffffffffffff1673ffffffffffffffffffffffffffffffffffffffff1663f242432a3033846001015485600201546040518563ffffffff1660e01b81526004016104e394939291906113ea565b600060405180830381600087803b1580156104fd57600080fd5b505af1158015610511573d6000803e3d6000fd5b5050505060046000838152602001908152602001600020600080820160006101000a81549073ffffffffffffffffffffffffffffffffffffffff02191690556001820160009055600282016000905560038201600090556004820160006101000a81549060ff0219169055505080600101543373ffffffffffffffffffffffffffffffffffffffff16837f587f221a465f70749f0226b8dd00e01725d2fc0a7cb46475c600f1a81f1849c384600201546040516105ce91906115dc565b60405180910390a45050565b6000600354905090565b60006004600084815260200190815260200160002090508181600201541015610642576040517f08c379a000000000000000000000000000000000000000000000000000000000815260040161063990611541565b60405180910390fd5b60008211610685576040517f08c379a000000000000000000000000000000000000000000000000000000000815260040161067c90611561565b60405180910390fd5b60008282600301546106979190611650565b90508160040160009054906101000a900460ff16156107c957600160009054906101000a900473ffffffffffffffffffffffffffffffffffffffff1673ffffffffffffffffffffffffffffffffffffffff166323b872dd338460000160009054906101000a900473ffffffffffffffffffffffffffffffffffffffff16846040518463ffffffff1660e01b8152600401610733939291906113b3565b602060405180830381600087803b15801561074d57600080fd5b505af1158015610761573d6000803e3d6000fd5b505050506040513d601f19601f8201168201806040525081019061078591906110b5565b6107c4576040517f08c379a00000000000000000000000000000000000000000000000000000000081526004016107bb90611581565b60405180910390fd5b6108de565b600260009054906101000a900473ffffffffffffffffffffffffffffffffffffffff1673ffffffffffffffffffffffffffffffffffffffff166323b872dd338460000160009054906101000a900473ffffffffffffffffffffffffffffffffffffffff16846040518463ffffffff1660e01b815260040161084c939291906113b3565b602060405180830381600087803b15801561086657600080fd5b505af115801561087a573d6000803e3d6000fd5b505050506040513d601f19601f8201168201806040525081019061089e91906110b5565b6108dd576040517f08c379a00000000000000000000000000000000000000000000000000000000081526004016108d490611521565b60405180910390fd5b5b60008054906101000a900473ffffffffffffffffffffffffffffffffffffffff1673ffffffffffffffffffffffffffffffffffffffff1663f242432a30338560010154876040518563ffffffff1660e01b815260040161094194939291906113ea565b600060405180830381600087803b15801561095b57600080fd5b505af115801561096f573d6000803e3d6000fd5b505050508282600201600082825461098791906116aa565b92505081905550600082600201541415610a055760046000858152602001908152602001600020600080820160006101000a81549073ffffffffffffffffffffffffffffffffffffffff02191690556001820160009055600282016000905560038201600090556004820160006101000a81549060ff021916905550505b81600101543373ffffffffffffffffffffffffffffffffffffffff16857f0db6cd6881fc0453b2d01f52eb5a16417707659f245732abc10f847426e3525d86604051610a5191906115dc565b60405180910390a450505050565b600160009054906101000a900473ffffffffffffffffffffffffffffffffffffffff1681565b600260009054906101000a900473ffffffffffffffffffffffffffffffffffffffff1681565b600063bc197c8160e01b905098975050505050505050565b60046020528060005260406000206000915090508060000160009054906101000a900473ffffffffffffffffffffffffffffffffffffffff16908060010154908060020154908060030154908060040160009054906101000a900460ff16905085565b600063f23a6e6160e01b90509695505050505050565b60008311610b7f576040517f08c379a0000000000000000000000000000000000000000000000000000000008152600401610b7690611561565b60405180910390fd5b60008211610bc2576040517f08c379a0000000000000000000000000000000000000000000000000000000008152600401610bb990611501565b60405180910390fd5b60008054906101000a900473ffffffffffffffffffffffffffffffffffffffff1673ffffffffffffffffffffffffffffffffffffffff1663f242432a333087876040518563ffffffff1660e01b8152600401610c2194939291906113ea565b600060405180830381600087803b158015610c3b57600080fd5b505af1158015610c4f573d6000803e3d6000fd5b5050505060006040518060a001604052803373ffffffffffffffffffffffffffffffffffffffff16815260200186815260200185815260200184815260200183151581525090508060046000600354815260200190815260200160002060008201518160000160006101000a81548173ffffffffffffffffffffffffffffffffffffffff021916908373ffffffffffffffffffffffffffffffffffffffff16021790555060208201518160010155604082015181600201556060820151816003015560808201518160040160006101000a81548160ff021916908315150217905550905050843373ffffffffffffffffffffffffffffffffffffffff166003547fa2094e255da138e9da370ce95c48a5cffd5ae694de4c4372949b7068ad89c0bc878787604051610d82939291906115f7565b60405180910390a460036000815480929190610d9d9061179a565b91905055505050505050565b60007f01ffc9a7000000000000000000000000000000000000000000000000000000007bffffffffffffffffffffffffffffffffffffffffffffffffffffffff1916827bffffffffffffffffffffffffffffffffffffffffffffffffffffffff1916149050919050565b6040518060a00160405280600073ffffffffffffffffffffffffffffffffffffffff1681526020016000815260200160008152602001600081526020016000151581525090565b600081359050610e69816119c9565b92915050565b60008083601f840112610e8157600080fd5b8235905067ffffffffffffffff811115610e9a57600080fd5b602083019150836020820283011115610eb257600080fd5b9250929050565b600081359050610ec8816119e0565b92915050565b600081519050610edd816119e0565b92915050565b600081359050610ef2816119f7565b92915050565b60008083601f840112610f0a57600080fd5b8235905067ffffffffffffffff811115610f2357600080fd5b602083019150836001820283011115610f3b57600080fd5b9250929050565b600081359050610f5181611a0e565b92915050565b60008060008060008060008060a0898b031215610f7357600080fd5b6000610f818b828c01610e5a565b9850506020610f928b828c01610e5a565b975050604089013567ffffffffffffffff811115610faf57600080fd5b610fbb8b828c01610e6f565b9650965050606089013567ffffffffffffffff811115610fda57600080fd5b610fe68b828c01610e6f565b9450945050608089013567ffffffffffffffff81111561100557600080fd5b6110118b828c01610ef8565b92509250509295985092959890939650565b60008060008060008060a0878903121561103c57600080fd5b600061104a89828a01610e5a565b965050602061105b89828a01610e5a565b955050604061106c89828a01610f42565b945050606061107d89828a01610f42565b935050608087013567ffffffffffffffff81111561109a57600080fd5b6110a689828a01610ef8565b92509250509295509295509295565b6000602082840312156110c757600080fd5b60006110d584828501610ece565b91505092915050565b6000602082840312156110f057600080fd5b60006110fe84828501610ee3565b91505092915050565b60006020828403121561111957600080fd5b600061112784828501610f42565b91505092915050565b6000806040838503121561114357600080fd5b600061115185828601610f42565b925050602061116285828601610f42565b9150509250929050565b6000806000806080858703121561118257600080fd5b600061119087828801610f42565b94505060206111a187828801610f42565b93505060406111b287828801610f42565b92505060606111c387828801610eb9565b91505092959194509250565b6111d8816116de565b82525050565b6111e7816116de565b82525050565b6111f6816116f0565b82525050565b611205816116f0565b82525050565b611214816116fc565b82525050565b61122381611752565b82525050565b61123281611776565b82525050565b600061124560338361163f565b915061125082611812565b604082019050919050565b600061126860218361163f565b915061127382611861565b604082019050919050565b600061128b60288361163f565b9150611296826118b0565b604082019050919050565b60006112ae602a8361163f565b91506112b9826118ff565b604082019050919050565b60006112d160008361162e565b91506112dc8261194e565b600082019050919050565b60006112f460208361163f565b91506112ff82611951565b602082019050919050565b600061131760338361163f565b91506113228261197a565b604082019050919050565b60a08201600082015161134360008501826111cf565b5060208201516113566020850182611395565b5060408201516113696040850182611395565b50606082015161137c6060850182611395565b50608082015161138f60808501826111ed565b50505050565b61139e81611748565b82525050565b6113ad81611748565b82525050565b60006060820190506113c860008301866111de565b6113d560208301856111de565b6113e260408301846113a4565b949350505050565b600060a0820190506113ff60008301876111de565b61140c60208301866111de565b61141960408301856113a4565b61142660608301846113a4565b8181036080830152611437816112c4565b905095945050505050565b600060a08201905061145760008301886111de565b61146460208301876113a4565b61147160408301866113a4565b61147e60608301856113a4565b61148b60808301846111fc565b9695505050505050565b60006020820190506114aa60008301846111fc565b92915050565b60006020820190506114c5600083018461120b565b92915050565b60006020820190506114e0600083018461121a565b92915050565b60006020820190506114fb6000830184611229565b92915050565b6000602082019050818103600083015261151a81611238565b9050919050565b6000602082019050818103600083015261153a8161125b565b9050919050565b6000602082019050818103600083015261155a8161127e565b9050919050565b6000602082019050818103600083015261157a816112a1565b9050919050565b6000602082019050818103600083015261159a816112e7565b9050919050565b600060208201905081810360008301526115ba8161130a565b9050919050565b600060a0820190506115d6600083018461132d565b92915050565b60006020820190506115f160008301846113a4565b92915050565b600060608201905061160c60008301866113a4565b61161960208301856113a4565b61162660408301846111fc565b949350505050565b600082825260208201905092915050565b600082825260208201905092915050565b600061165b82611748565b915061166683611748565b9250817fffffffffffffffffffffffffffffffffffffffffffffffffffffffffffffffff048311821515161561169f5761169e6117e3565b5b828202905092915050565b60006116b582611748565b91506116c083611748565b9250828210156116d3576116d26117e3565b5b828203905092915050565b60006116e982611728565b9050919050565b60008115159050919050565b60007fffffffff0000000000000000000000000000000000000000000000000000000082169050919050565b600073ffffffffffffffffffffffffffffffffffffffff82169050919050565b6000819050919050565b600061175d82611764565b9050919050565b600061176f82611728565b9050919050565b600061178182611788565b9050919050565b600061179382611728565b9050919050565b60006117a582611748565b91507fffffffffffffffffffffffffffffffffffffffffffffffffffffffffffffffff8214156117d8576117d76117e3565b5b600182019050919050565b7f4e487b7100000000000000000000000000000000000000000000000000000000600052601160045260246000fd5b7f4d61726b6574706c6163653a2050726963652070657220746f6b656e206d757360008201527f742062652067726561746572207468616e203000000000000000000000000000602082015250565b7f4d61726b6574706c6163653a2055534454207472616e73666572206661696c6560008201527f6400000000000000000000000000000000000000000000000000000000000000602082015250565b7f4d61726b6574706c6163653a204e6f7420656e6f75676820746f6b656e73206160008201527f7661696c61626c65000000000000000000000000000000000000000000000000602082015250565b7f4d61726b6574706c6163653a20416d6f756e74206d757374206265206772656160008201527f746572207468616e203000000000000000000000000000000000000000000000602082015250565b50565b7f4d61726b6574706c6163653a20545258207472616e73666572206661696c6564600082015250565b7f4d61726b6574706c6163653a204f6e6c79207468652073656c6c65722063616e60008201527f2063616e63656c20746865206c697374696e6700000000000000000000000000602082015250565b6119d2816116de565b81146119dd57600080fd5b50565b6119e9816116f0565b81146119f457600080fd5b50565b611a00816116fc565b8114611a0b57600080fd5b50565b611a1781611748565b8114611a2257600080fd5b5056fea2646970667358221220f94b91fe0c187f3b3a2dad34ca99a8d07a330682b96c97226a2fbf9532b9851f64736f6c63430008040033",
  "linkReferences": {},
  "deployedLinkReferences": {}
}