{
  "_format": "hh-sol-artifact-1",
  "contractName": "Offset",
  "sourceName": "contracts/OffsetContract.sol",
  "abi": [
    {
      "inputs": [
        {
          "internalType": "address",
          "name": "bridgeAddress",
          "type": "address"
        },
        {
          "internalType": "address",
          "name": "erc1155TokenAddress",
          "type": "address"
        },
        {
          "internalType": "string",
          "name": "uri",
          "type": "string"
        }
      ],
      "stateMutability": "nonpayable",
      "type": "constructor"
    },
    {
      "anonymous": false,
      "inputs": [
        {
          "indexed": true,
          "internalType": "address",
          "name": "account",
          "type": "address"
        },
        {
          "indexed": true,
          "internalType": "address",
          "name": "operator",
          "type": "address"
        },
        {
          "indexed": false,
          "internalType": "bool",
          "name": "approved",
          "type": "bool"
        }
      ],
      "name": "ApprovalForAll",
      "type": "event"
    },
    {
      "anonymous": false,
      "inputs": [
        {
          "indexed": true,
          "internalType": "address",
          "name": "previousOwner",
          "type": "address"
        },
        {
          "indexed": true,
          "internalType": "address",
          "name": "newOwner",
          "type": "address"
        }
      ],
      "name": "OwnershipTransferred",
      "type": "event"
    },
    {
      "anonymous": false,
      "inputs": [
        {
          "indexed": true,
          "internalType": "address",
          "name": "operator",
          "type": "address"
        },
        {
          "indexed": true,
          "internalType": "address",
          "name": "from",
          "type": "address"
        },
        {
          "indexed": true,
          "internalType": "address",
          "name": "to",
          "type": "address"
        },
        {
          "indexed": false,
          "internalType": "uint256[]",
          "name": "ids",
          "type": "uint256[]"
        },
        {
          "indexed": false,
          "internalType": "uint256[]",
          "name": "values",
          "type": "uint256[]"
        }
      ],
      "name": "TransferBatch",
      "type": "event"
    },
    {
      "anonymous": false,
      "inputs": [
        {
          "indexed": true,
          "internalType": "address",
          "name": "operator",
          "type": "address"
        },
        {
          "indexed": true,
          "internalType": "address",
          "name": "from",
          "type": "address"
        },
        {
          "indexed": true,
          "internalType": "address",
          "name": "to",
          "type": "address"
        },
        {
          "indexed": false,
          "internalType": "uint256",
          "name": "id",
          "type": "uint256"
        },
        {
          "indexed": false,
          "internalType": "uint256",
          "name": "value",
          "type": "uint256"
        }
      ],
      "name": "TransferSingle",
      "type": "event"
    },
    {
      "anonymous": false,
      "inputs": [
        {
          "indexed": false,
          "internalType": "string",
          "name": "value",
          "type": "string"
        },
        {
          "indexed": true,
          "internalType": "uint256",
          "name": "id",
          "type": "uint256"
        }
      ],
      "name": "URI",
      "type": "event"
    },
    {
      "inputs": [
        {
          "internalType": "address",
          "name": "account",
          "type": "address"
        },
        {
          "internalType": "uint256",
          "name": "id",
          "type": "uint256"
        }
      ],
      "name": "balanceOf",
      "outputs": [
        {
          "internalType": "uint256",
          "name": "",
          "type": "uint256"
        }
      ],
      "stateMutability": "view",
      "type": "function"
    },
    {
      "inputs": [
        {
          "internalType": "address[]",
          "name": "accounts",
          "type": "address[]"
        },
        {
          "internalType": "uint256[]",
          "name": "ids",
          "type": "uint256[]"
        }
      ],
      "name": "balanceOfBatch",
      "outputs": [
        {
          "internalType": "uint256[]",
          "name": "",
          "type": "uint256[]"
        }
      ],
      "stateMutability": "view",
      "type": "function"
    },
    {
      "inputs": [
        {
          "internalType": "address",
          "name": "account",
          "type": "address"
        },
        {
          "internalType": "address",
          "name": "operator",
          "type": "address"
        }
      ],
      "name": "isApprovedForAll",
      "outputs": [
        {
          "internalType": "bool",
          "name": "",
          "type": "bool"
        }
      ],
      "stateMutability": "view",
      "type": "function"
    },
    {
      "inputs": [
        {
          "internalType": "address",
          "name": "user",
          "type": "address"
        },
        {
          "internalType": "uint256",
          "name": "tokenId",
          "type": "uint256"
        },
        {
          "internalType": "uint256",
          "name": "amount",
          "type": "uint256"
        }
      ],
      "name": "offsetCarbonCredits",
      "outputs": [],
      "stateMutability": "nonpayable",
      "type": "function"
    },
    {
      "inputs": [],
      "name": "owner",
      "outputs": [
        {
          "internalType": "address",
          "name": "",
          "type": "address"
        }
      ],
      "stateMutability": "view",
      "type": "function"
    },
    {
      "inputs": [],
      "name": "renounceOwnership",
      "outputs": [],
      "stateMutability": "nonpayable",
      "type": "function"
    },
    {
      "inputs": [
        {
          "internalType": "address",
          "name": "from",
          "type": "address"
        },
        {
          "internalType": "address",
          "name": "to",
          "type": "address"
        },
        {
          "internalType": "uint256[]",
          "name": "ids",
          "type": "uint256[]"
        },
        {
          "internalType": "uint256[]",
          "name": "amounts",
          "type": "uint256[]"
        },
        {
          "internalType": "bytes",
          "name": "data",
          "type": "bytes"
        }
      ],
      "name": "safeBatchTransferFrom",
      "outputs": [],
      "stateMutability": "nonpayable",
      "type": "function"
    },
    {
      "inputs": [
        {
          "internalType": "address",
          "name": "from",
          "type": "address"
        },
        {
          "internalType": "address",
          "name": "to",
          "type": "address"
        },
        {
          "internalType": "uint256",
          "name": "id",
          "type": "uint256"
        },
        {
          "internalType": "uint256",
          "name": "amount",
          "type": "uint256"
        },
        {
          "internalType": "bytes",
          "name": "data",
          "type": "bytes"
        }
      ],
      "name": "safeTransferFrom",
      "outputs": [],
      "stateMutability": "nonpayable",
      "type": "function"
    },
    {
      "inputs": [
        {
          "internalType": "address",
          "name": "operator",
          "type": "address"
        },
        {
          "internalType": "bool",
          "name": "approved",
          "type": "bool"
        }
      ],
      "name": "setApprovalForAll",
      "outputs": [],
      "stateMutability": "nonpayable",
      "type": "function"
    },
    {
      "inputs": [
        {
          "internalType": "bytes4",
          "name": "interfaceId",
          "type": "bytes4"
        }
      ],
      "name": "supportsInterface",
      "outputs": [
        {
          "internalType": "bool",
          "name": "",
          "type": "bool"
        }
      ],
      "stateMutability": "view",
      "type": "function"
    },
    {
      "inputs": [
        {
          "internalType": "address",
          "name": "newOwner",
          "type": "address"
        }
      ],
      "name": "transferOwnership",
      "outputs": [],
      "stateMutability": "nonpayable",
      "type": "function"
    },
    {
      "inputs": [
        {
          "internalType": "uint256",
          "name": "",
          "type": "uint256"
        }
      ],
      "name": "uri",
      "outputs": [
        {
          "internalType": "string",
          "name": "",
          "type": "string"
        }
      ],
      "stateMutability": "view",
      "type": "function"
    }
  ],
  "bytecode": "0x60806040523480156200001157600080fd5b506040516200346f3803806200346f833981810160405281019062000037919062000318565b806200004981620000f560201b60201c565b506200006a6200005e6200011160201b60201c565b6200011960201b60201c565b82600560006101000a81548173ffffffffffffffffffffffffffffffffffffffff021916908373ffffffffffffffffffffffffffffffffffffffff16021790555081600660006101000a81548173ffffffffffffffffffffffffffffffffffffffff021916908373ffffffffffffffffffffffffffffffffffffffff16021790555050505062000545565b80600290805190602001906200010d929190620001df565b5050565b600033905090565b6000600360009054906101000a900473ffffffffffffffffffffffffffffffffffffffff16905081600360006101000a81548173ffffffffffffffffffffffffffffffffffffffff021916908373ffffffffffffffffffffffffffffffffffffffff1602179055508173ffffffffffffffffffffffffffffffffffffffff168173ffffffffffffffffffffffffffffffffffffffff167f8be0079c531659141344cd1fd0a4f28419497f9722a3daafe3b4186f6b6457e060405160405180910390a35050565b828054620001ed9062000450565b90600052602060002090601f0160209004810192826200021157600085556200025d565b82601f106200022c57805160ff19168380011785556200025d565b828001600101855582156200025d579182015b828111156200025c5782518255916020019190600101906200023f565b5b5090506200026c919062000270565b5090565b5b808211156200028b57600081600090555060010162000271565b5090565b6000620002a6620002a084620003b0565b62000387565b905082815260208101848484011115620002bf57600080fd5b620002cc8482856200041a565b509392505050565b600081519050620002e5816200052b565b92915050565b600082601f830112620002fd57600080fd5b81516200030f8482602086016200028f565b91505092915050565b6000806000606084860312156200032e57600080fd5b60006200033e86828701620002d4565b93505060206200035186828701620002d4565b925050604084015167ffffffffffffffff8111156200036f57600080fd5b6200037d86828701620002eb565b9150509250925092565b600062000393620003a6565b9050620003a1828262000486565b919050565b6000604051905090565b600067ffffffffffffffff821115620003ce57620003cd620004eb565b5b620003d9826200051a565b9050602081019050919050565b6000620003f382620003fa565b9050919050565b600073ffffffffffffffffffffffffffffffffffffffff82169050919050565b60005b838110156200043a5780820151818401526020810190506200041d565b838111156200044a576000848401525b50505050565b600060028204905060018216806200046957607f821691505b6020821081141562000480576200047f620004bc565b5b50919050565b62000491826200051a565b810181811067ffffffffffffffff82111715620004b357620004b2620004eb565b5b80604052505050565b7f4e487b7100000000000000000000000000000000000000000000000000000000600052602260045260246000fd5b7f4e487b7100000000000000000000000000000000000000000000000000000000600052604160045260246000fd5b6000601f19601f8301169050919050565b6200053681620003e6565b81146200054257600080fd5b50565b612f1a80620005556000396000f3fe608060405234801561001057600080fd5b50600436106100b35760003560e01c8063715018a611610071578063715018a6146101b05780638da5cb5b146101ba578063a22cb465146101d8578063e985e9c5146101f4578063f242432a14610224578063f2fde38b14610240576100b3565b8062fdd58e146100b857806301ffc9a7146100e85780630e89341c146101185780632eb2c2d61461014857806335943e6f146101645780634e1273f414610180575b600080fd5b6100d260048036038101906100cd9190611e5a565b61025c565b6040516100df9190612653565b60405180910390f35b61010260048036038101906100fd9190611f51565b610325565b60405161010f9190612476565b60405180910390f35b610132600480360381019061012d9190611fa3565b610407565b60405161013f9190612491565b60405180910390f35b610162600480360381019061015d9190611cd0565b61049b565b005b61017e60048036038101906101799190611e96565b61053c565b005b61019a60048036038101906101959190611ee5565b6106f6565b6040516101a7919061241d565b60405180910390f35b6101b86108a7565b005b6101c26108bb565b6040516101cf91906122e0565b60405180910390f35b6101f260048036038101906101ed9190611e1e565b6108e5565b005b61020e60048036038101906102099190611c94565b6108fb565b60405161021b9190612476565b60405180910390f35b61023e60048036038101906102399190611d8f565b61098f565b005b61025a60048036038101906102559190611c6b565b610a30565b005b60008073ffffffffffffffffffffffffffffffffffffffff168373ffffffffffffffffffffffffffffffffffffffff1614156102cd576040517f08c379a00000000000000000000000000000000000000000000000000000000081526004016102c4906124f3565b60405180910390fd5b60008083815260200190815260200160002060008473ffffffffffffffffffffffffffffffffffffffff1673ffffffffffffffffffffffffffffffffffffffff16815260200190815260200160002054905092915050565b60007fd9b67a26000000000000000000000000000000000000000000000000000000007bffffffffffffffffffffffffffffffffffffffffffffffffffffffff1916827bffffffffffffffffffffffffffffffffffffffffffffffffffffffff191614806103f057507f0e89341c000000000000000000000000000000000000000000000000000000007bffffffffffffffffffffffffffffffffffffffffffffffffffffffff1916827bffffffffffffffffffffffffffffffffffffffffffffffffffffffff1916145b8061040057506103ff82610ab4565b5b9050919050565b606060028054610416906128c2565b80601f0160208091040260200160405190810160405280929190818152602001828054610442906128c2565b801561048f5780601f106104645761010080835404028352916020019161048f565b820191906000526020600020905b81548152906001019060200180831161047257829003601f168201915b50505050509050919050565b6104a3610b1e565b73ffffffffffffffffffffffffffffffffffffffff168573ffffffffffffffffffffffffffffffffffffffff1614806104e957506104e8856104e3610b1e565b6108fb565b5b610528576040517f08c379a000000000000000000000000000000000000000000000000000000000815260040161051f90612513565b60405180910390fd5b6105358585858585610b26565b5050505050565b80600660009054906101000a900473ffffffffffffffffffffffffffffffffffffffff1673ffffffffffffffffffffffffffffffffffffffff1662fdd58e85856040518363ffffffff1660e01b81526004016105999291906123bd565b60206040518083038186803b1580156105b157600080fd5b505afa1580156105c5573d6000803e3d6000fd5b505050506040513d601f19601f820116820180604052508101906105e99190611fcc565b101561062a576040517f08c379a0000000000000000000000000000000000000000000000000000000008152600401610621906125b3565b60405180910390fd5b600660009054906101000a900473ffffffffffffffffffffffffffffffffffffffff1673ffffffffffffffffffffffffffffffffffffffff1663f5298aca8484846040518463ffffffff1660e01b8152600401610689939291906123e6565b600060405180830381600087803b1580156106a357600080fd5b505af11580156106b7573d6000803e3d6000fd5b505050506106d983600454600160405180602001604052806000815250610e94565b600460008154809291906106ec90612925565b9190505550505050565b6060815183511461073c576040517f08c379a0000000000000000000000000000000000000000000000000000000008152600401610733906125d3565b60405180910390fd5b6000835167ffffffffffffffff81111561077f577f4e487b7100000000000000000000000000000000000000000000000000000000600052604160045260246000fd5b6040519080825280602002602001820160405280156107ad5781602001602082028036833780820191505090505b50905060005b845181101561089c576108468582815181106107f8577f4e487b7100000000000000000000000000000000000000000000000000000000600052603260045260246000fd5b6020026020010151858381518110610839577f4e487b7100000000000000000000000000000000000000000000000000000000600052603260045260246000fd5b602002602001015161025c565b82828151811061087f577f4e487b7100000000000000000000000000000000000000000000000000000000600052603260045260246000fd5b6020026020010181815250508061089590612925565b90506107b3565b508091505092915050565b6108af611045565b6108b960006110c3565b565b6000600360009054906101000a900473ffffffffffffffffffffffffffffffffffffffff16905090565b6108f76108f0610b1e565b8383611189565b5050565b6000600160008473ffffffffffffffffffffffffffffffffffffffff1673ffffffffffffffffffffffffffffffffffffffff16815260200190815260200160002060008373ffffffffffffffffffffffffffffffffffffffff1673ffffffffffffffffffffffffffffffffffffffff16815260200190815260200160002060009054906101000a900460ff16905092915050565b610997610b1e565b73ffffffffffffffffffffffffffffffffffffffff168573ffffffffffffffffffffffffffffffffffffffff1614806109dd57506109dc856109d7610b1e565b6108fb565b5b610a1c576040517f08c379a0000000000000000000000000000000000000000000000000000000008152600401610a1390612513565b60405180910390fd5b610a2985858585856112f6565b5050505050565b610a38611045565b600073ffffffffffffffffffffffffffffffffffffffff168173ffffffffffffffffffffffffffffffffffffffff161415610aa8576040517f08c379a0000000000000000000000000000000000000000000000000000000008152600401610a9f906124d3565b60405180910390fd5b610ab1816110c3565b50565b60007f01ffc9a7000000000000000000000000000000000000000000000000000000007bffffffffffffffffffffffffffffffffffffffffffffffffffffffff1916827bffffffffffffffffffffffffffffffffffffffffffffffffffffffff1916149050919050565b600033905090565b8151835114610b6a576040517f08c379a0000000000000000000000000000000000000000000000000000000008152600401610b61906125f3565b60405180910390fd5b600073ffffffffffffffffffffffffffffffffffffffff168473ffffffffffffffffffffffffffffffffffffffff161415610bda576040517f08c379a0000000000000000000000000000000000000000000000000000000008152600401610bd190612533565b60405180910390fd5b6000610be4610b1e565b9050610bf4818787878787611592565b60005b8451811015610df1576000858281518110610c3b577f4e487b7100000000000000000000000000000000000000000000000000000000600052603260045260246000fd5b602002602001015190506000858381518110610c80577f4e487b7100000000000000000000000000000000000000000000000000000000600052603260045260246000fd5b60200260200101519050600080600084815260200190815260200160002060008b73ffffffffffffffffffffffffffffffffffffffff1673ffffffffffffffffffffffffffffffffffffffff16815260200190815260200160002054905081811015610d21576040517f08c379a0000000000000000000000000000000000000000000000000000000008152600401610d1890612553565b60405180910390fd5b81810360008085815260200190815260200160002060008c73ffffffffffffffffffffffffffffffffffffffff1673ffffffffffffffffffffffffffffffffffffffff168152602001908152602001600020819055508160008085815260200190815260200160002060008b73ffffffffffffffffffffffffffffffffffffffff1673ffffffffffffffffffffffffffffffffffffffff1681526020019081526020016000206000828254610dd691906127b6565b9250508190555050505080610dea90612925565b9050610bf7565b508473ffffffffffffffffffffffffffffffffffffffff168673ffffffffffffffffffffffffffffffffffffffff168273ffffffffffffffffffffffffffffffffffffffff167f4a39dc06d4c0dbc64b70af90fd698a233a518aa5d07e595d983b8c0526c8f7fb8787604051610e6892919061243f565b60405180910390a4610e7e81878787878761159a565b610e8c8187878787876115a2565b505050505050565b600073ffffffffffffffffffffffffffffffffffffffff168473ffffffffffffffffffffffffffffffffffffffff161415610f04576040517f08c379a0000000000000000000000000000000000000000000000000000000008152600401610efb90612613565b60405180910390fd5b6000610f0e610b1e565b90506000610f1b85611789565b90506000610f2885611789565b9050610f3983600089858589611592565b8460008088815260200190815260200160002060008973ffffffffffffffffffffffffffffffffffffffff1673ffffffffffffffffffffffffffffffffffffffff1681526020019081526020016000206000828254610f9891906127b6565b925050819055508673ffffffffffffffffffffffffffffffffffffffff16600073ffffffffffffffffffffffffffffffffffffffff168473ffffffffffffffffffffffffffffffffffffffff167fc3d58168c5ae7397731d063d5bbf3d657854427343f4c083240f7aacaa2d0f62898960405161101692919061266e565b60405180910390a461102d8360008985858961159a565b61103c8360008989898961184f565b50505050505050565b61104d610b1e565b73ffffffffffffffffffffffffffffffffffffffff1661106b6108bb565b73ffffffffffffffffffffffffffffffffffffffff16146110c1576040517f08c379a00000000000000000000000000000000000000000000000000000000081526004016110b890612573565b60405180910390fd5b565b6000600360009054906101000a900473ffffffffffffffffffffffffffffffffffffffff16905081600360006101000a81548173ffffffffffffffffffffffffffffffffffffffff021916908373ffffffffffffffffffffffffffffffffffffffff1602179055508173ffffffffffffffffffffffffffffffffffffffff168173ffffffffffffffffffffffffffffffffffffffff167f8be0079c531659141344cd1fd0a4f28419497f9722a3daafe3b4186f6b6457e060405160405180910390a35050565b8173ffffffffffffffffffffffffffffffffffffffff168373ffffffffffffffffffffffffffffffffffffffff1614156111f8576040517f08c379a00000000000000000000000000000000000000000000000000000000081526004016111ef90612593565b60405180910390fd5b80600160008573ffffffffffffffffffffffffffffffffffffffff1673ffffffffffffffffffffffffffffffffffffffff16815260200190815260200160002060008473ffffffffffffffffffffffffffffffffffffffff1673ffffffffffffffffffffffffffffffffffffffff16815260200190815260200160002060006101000a81548160ff0219169083151502179055508173ffffffffffffffffffffffffffffffffffffffff168373ffffffffffffffffffffffffffffffffffffffff167f17307eab39ab6107e8899845ad3d59bd9653f200f220920489ca2b5937696c31836040516112e99190612476565b60405180910390a3505050565b600073ffffffffffffffffffffffffffffffffffffffff168473ffffffffffffffffffffffffffffffffffffffff161415611366576040517f08c379a000000000000000000000000000000000000000000000000000000000815260040161135d90612533565b60405180910390fd5b6000611370610b1e565b9050600061137d85611789565b9050600061138a85611789565b905061139a838989858589611592565b600080600088815260200190815260200160002060008a73ffffffffffffffffffffffffffffffffffffffff1673ffffffffffffffffffffffffffffffffffffffff16815260200190815260200160002054905085811015611431576040517f08c379a000000000000000000000000000000000000000000000000000000000815260040161142890612553565b60405180910390fd5b85810360008089815260200190815260200160002060008b73ffffffffffffffffffffffffffffffffffffffff1673ffffffffffffffffffffffffffffffffffffffff168152602001908152602001600020819055508560008089815260200190815260200160002060008a73ffffffffffffffffffffffffffffffffffffffff1673ffffffffffffffffffffffffffffffffffffffff16815260200190815260200160002060008282546114e691906127b6565b925050819055508773ffffffffffffffffffffffffffffffffffffffff168973ffffffffffffffffffffffffffffffffffffffff168573ffffffffffffffffffffffffffffffffffffffff167fc3d58168c5ae7397731d063d5bbf3d657854427343f4c083240f7aacaa2d0f628a8a60405161156392919061266e565b60405180910390a4611579848a8a86868a61159a565b611587848a8a8a8a8a61184f565b505050505050505050565b505050505050565b505050505050565b6115c18473ffffffffffffffffffffffffffffffffffffffff16611a36565b15611781578373ffffffffffffffffffffffffffffffffffffffff1663bc197c8187878686866040518663ffffffff1660e01b81526004016116079594939291906122fb565b602060405180830381600087803b15801561162157600080fd5b505af192505050801561165257506040513d601f19601f8201168201806040525081019061164f9190611f7a565b60015b6116f85761165e6129fb565b806308c379a014156116bb5750611673612df2565b8061167e57506116bd565b806040517f08c379a00000000000000000000000000000000000000000000000000000000081526004016116b29190612491565b60405180910390fd5b505b6040517f08c379a00000000000000000000000000000000000000000000000000000000081526004016116ef90612633565b60405180910390fd5b63bc197c8160e01b7bffffffffffffffffffffffffffffffffffffffffffffffffffffffff1916817bffffffffffffffffffffffffffffffffffffffffffffffffffffffff19161461177f576040517f08c379a0000000000000000000000000000000000000000000000000000000008152600401611776906124b3565b60405180910390fd5b505b505050505050565b60606000600167ffffffffffffffff8111156117ce577f4e487b7100000000000000000000000000000000000000000000000000000000600052604160045260246000fd5b6040519080825280602002602001820160405280156117fc5781602001602082028036833780820191505090505b509050828160008151811061183a577f4e487b7100000000000000000000000000000000000000000000000000000000600052603260045260246000fd5b60200260200101818152505080915050919050565b61186e8473ffffffffffffffffffffffffffffffffffffffff16611a36565b15611a2e578373ffffffffffffffffffffffffffffffffffffffff1663f23a6e6187878686866040518663ffffffff1660e01b81526004016118b4959493929190612363565b602060405180830381600087803b1580156118ce57600080fd5b505af19250505080156118ff57506040513d601f19601f820116820180604052508101906118fc9190611f7a565b60015b6119a55761190b6129fb565b806308c379a014156119685750611920612df2565b8061192b575061196a565b806040517f08c379a000000000000000000000000000000000000000000000000000000000815260040161195f9190612491565b60405180910390fd5b505b6040517f08c379a000000000000000000000000000000000000000000000000000000000815260040161199c90612633565b60405180910390fd5b63f23a6e6160e01b7bffffffffffffffffffffffffffffffffffffffffffffffffffffffff1916817bffffffffffffffffffffffffffffffffffffffffffffffffffffffff191614611a2c576040517f08c379a0000000000000000000000000000000000000000000000000000000008152600401611a23906124b3565b60405180910390fd5b505b505050505050565b6000808273ffffffffffffffffffffffffffffffffffffffff163b119050919050565b6000611a6c611a67846126bc565b612697565b90508083825260208201905082856020860282011115611a8b57600080fd5b60005b85811015611abb5781611aa18882611b6f565b845260208401935060208301925050600181019050611a8e565b5050509392505050565b6000611ad8611ad3846126e8565b612697565b90508083825260208201905082856020860282011115611af757600080fd5b60005b85811015611b275781611b0d8882611c41565b845260208401935060208301925050600181019050611afa565b5050509392505050565b6000611b44611b3f84612714565b612697565b905082815260208101848484011115611b5c57600080fd5b611b67848285612880565b509392505050565b600081359050611b7e81612e88565b92915050565b600082601f830112611b9557600080fd5b8135611ba5848260208601611a59565b91505092915050565b600082601f830112611bbf57600080fd5b8135611bcf848260208601611ac5565b91505092915050565b600081359050611be781612e9f565b92915050565b600081359050611bfc81612eb6565b92915050565b600081519050611c1181612eb6565b92915050565b600082601f830112611c2857600080fd5b8135611c38848260208601611b31565b91505092915050565b600081359050611c5081612ecd565b92915050565b600081519050611c6581612ecd565b92915050565b600060208284031215611c7d57600080fd5b6000611c8b84828501611b6f565b91505092915050565b60008060408385031215611ca757600080fd5b6000611cb585828601611b6f565b9250506020611cc685828601611b6f565b9150509250929050565b600080600080600060a08688031215611ce857600080fd5b6000611cf688828901611b6f565b9550506020611d0788828901611b6f565b945050604086013567ffffffffffffffff811115611d2457600080fd5b611d3088828901611bae565b935050606086013567ffffffffffffffff811115611d4d57600080fd5b611d5988828901611bae565b925050608086013567ffffffffffffffff811115611d7657600080fd5b611d8288828901611c17565b9150509295509295909350565b600080600080600060a08688031215611da757600080fd5b6000611db588828901611b6f565b9550506020611dc688828901611b6f565b9450506040611dd788828901611c41565b9350506060611de888828901611c41565b925050608086013567ffffffffffffffff811115611e0557600080fd5b611e1188828901611c17565b9150509295509295909350565b60008060408385031215611e3157600080fd5b6000611e3f85828601611b6f565b9250506020611e5085828601611bd8565b9150509250929050565b60008060408385031215611e6d57600080fd5b6000611e7b85828601611b6f565b9250506020611e8c85828601611c41565b9150509250929050565b600080600060608486031215611eab57600080fd5b6000611eb986828701611b6f565b9350506020611eca86828701611c41565b9250506040611edb86828701611c41565b9150509250925092565b60008060408385031215611ef857600080fd5b600083013567ffffffffffffffff811115611f1257600080fd5b611f1e85828601611b84565b925050602083013567ffffffffffffffff811115611f3b57600080fd5b611f4785828601611bae565b9150509250929050565b600060208284031215611f6357600080fd5b6000611f7184828501611bed565b91505092915050565b600060208284031215611f8c57600080fd5b6000611f9a84828501611c02565b91505092915050565b600060208284031215611fb557600080fd5b6000611fc384828501611c41565b91505092915050565b600060208284031215611fde57600080fd5b6000611fec84828501611c56565b91505092915050565b600061200183836122c2565b60208301905092915050565b6120168161280c565b82525050565b600061202782612755565b6120318185612783565b935061203c83612745565b8060005b8381101561206d5781516120548882611ff5565b975061205f83612776565b925050600181019050612040565b5085935050505092915050565b6120838161281e565b82525050565b600061209482612760565b61209e8185612794565b93506120ae81856020860161288f565b6120b781612a1d565b840191505092915050565b60006120cd8261276b565b6120d781856127a5565b93506120e781856020860161288f565b6120f081612a1d565b840191505092915050565b60006121086028836127a5565b915061211382612a3b565b604082019050919050565b600061212b6026836127a5565b915061213682612a8a565b604082019050919050565b600061214e602a836127a5565b915061215982612ad9565b604082019050919050565b6000612171602e836127a5565b915061217c82612b28565b604082019050919050565b60006121946025836127a5565b915061219f82612b77565b604082019050919050565b60006121b7602a836127a5565b91506121c282612bc6565b604082019050919050565b60006121da6020836127a5565b91506121e582612c15565b602082019050919050565b60006121fd6029836127a5565b915061220882612c3e565b604082019050919050565b60006122206019836127a5565b915061222b82612c8d565b602082019050919050565b60006122436029836127a5565b915061224e82612cb6565b604082019050919050565b60006122666028836127a5565b915061227182612d05565b604082019050919050565b60006122896021836127a5565b915061229482612d54565b604082019050919050565b60006122ac6034836127a5565b91506122b782612da3565b604082019050919050565b6122cb81612876565b82525050565b6122da81612876565b82525050565b60006020820190506122f5600083018461200d565b92915050565b600060a082019050612310600083018861200d565b61231d602083018761200d565b818103604083015261232f818661201c565b90508181036060830152612343818561201c565b905081810360808301526123578184612089565b90509695505050505050565b600060a082019050612378600083018861200d565b612385602083018761200d565b61239260408301866122d1565b61239f60608301856122d1565b81810360808301526123b18184612089565b90509695505050505050565b60006040820190506123d2600083018561200d565b6123df60208301846122d1565b9392505050565b60006060820190506123fb600083018661200d565b61240860208301856122d1565b61241560408301846122d1565b949350505050565b60006020820190508181036000830152612437818461201c565b905092915050565b60006040820190508181036000830152612459818561201c565b9050818103602083015261246d818461201c565b90509392505050565b600060208201905061248b600083018461207a565b92915050565b600060208201905081810360008301526124ab81846120c2565b905092915050565b600060208201905081810360008301526124cc816120fb565b9050919050565b600060208201905081810360008301526124ec8161211e565b9050919050565b6000602082019050818103600083015261250c81612141565b9050919050565b6000602082019050818103600083015261252c81612164565b9050919050565b6000602082019050818103600083015261254c81612187565b9050919050565b6000602082019050818103600083015261256c816121aa565b9050919050565b6000602082019050818103600083015261258c816121cd565b9050919050565b600060208201905081810360008301526125ac816121f0565b9050919050565b600060208201905081810360008301526125cc81612213565b9050919050565b600060208201905081810360008301526125ec81612236565b9050919050565b6000602082019050818103600083015261260c81612259565b9050919050565b6000602082019050818103600083015261262c8161227c565b9050919050565b6000602082019050818103600083015261264c8161229f565b9050919050565b600060208201905061266860008301846122d1565b92915050565b600060408201905061268360008301856122d1565b61269060208301846122d1565b9392505050565b60006126a16126b2565b90506126ad82826128f4565b919050565b6000604051905090565b600067ffffffffffffffff8211156126d7576126d66129cc565b5b602082029050602081019050919050565b600067ffffffffffffffff821115612703576127026129cc565b5b602082029050602081019050919050565b600067ffffffffffffffff82111561272f5761272e6129cc565b5b61273882612a1d565b9050602081019050919050565b6000819050602082019050919050565b600081519050919050565b600081519050919050565b600081519050919050565b6000602082019050919050565b600082825260208201905092915050565b600082825260208201905092915050565b600082825260208201905092915050565b60006127c182612876565b91506127cc83612876565b9250827fffffffffffffffffffffffffffffffffffffffffffffffffffffffffffffffff038211156128015761280061296e565b5b828201905092915050565b600061281782612856565b9050919050565b60008115159050919050565b60007fffffffff0000000000000000000000000000000000000000000000000000000082169050919050565b600073ffffffffffffffffffffffffffffffffffffffff82169050919050565b6000819050919050565b82818337600083830152505050565b60005b838110156128ad578082015181840152602081019050612892565b838111156128bc576000848401525b50505050565b600060028204905060018216806128da57607f821691505b602082108114156128ee576128ed61299d565b5b50919050565b6128fd82612a1d565b810181811067ffffffffffffffff8211171561291c5761291b6129cc565b5b80604052505050565b600061293082612876565b91507fffffffffffffffffffffffffffffffffffffffffffffffffffffffffffffffff8214156129635761296261296e565b5b600182019050919050565b7f4e487b7100000000000000000000000000000000000000000000000000000000600052601160045260246000fd5b7f4e487b7100000000000000000000000000000000000000000000000000000000600052602260045260246000fd5b7f4e487b7100000000000000000000000000000000000000000000000000000000600052604160045260246000fd5b600060033d1115612a1a5760046000803e612a17600051612a2e565b90505b90565b6000601f19601f8301169050919050565b60008160e01c9050919050565b7f455243313135353a204552433131353552656365697665722072656a6563746560008201527f6420746f6b656e73000000000000000000000000000000000000000000000000602082015250565b7f4f776e61626c653a206e6577206f776e657220697320746865207a65726f206160008201527f6464726573730000000000000000000000000000000000000000000000000000602082015250565b7f455243313135353a2061646472657373207a65726f206973206e6f742061207660008201527f616c6964206f776e657200000000000000000000000000000000000000000000602082015250565b7f455243313135353a2063616c6c6572206973206e6f7420746f6b656e206f776e60008201527f6572206f7220617070726f766564000000000000000000000000000000000000602082015250565b7f455243313135353a207472616e7366657220746f20746865207a65726f20616460008201527f6472657373000000000000000000000000000000000000000000000000000000602082015250565b7f455243313135353a20696e73756666696369656e742062616c616e636520666f60008201527f72207472616e7366657200000000000000000000000000000000000000000000602082015250565b7f4f776e61626c653a2063616c6c6572206973206e6f7420746865206f776e6572600082015250565b7f455243313135353a2073657474696e6720617070726f76616c2073746174757360008201527f20666f722073656c660000000000000000000000000000000000000000000000602082015250565b7f4e6f7420656e6f75676820636172626f6e206372656469747300000000000000600082015250565b7f455243313135353a206163636f756e747320616e6420696473206c656e67746860008201527f206d69736d617463680000000000000000000000000000000000000000000000602082015250565b7f455243313135353a2069647320616e6420616d6f756e7473206c656e6774682060008201527f6d69736d61746368000000000000000000000000000000000000000000000000602082015250565b7f455243313135353a206d696e7420746f20746865207a65726f2061646472657360008201527f7300000000000000000000000000000000000000000000000000000000000000602082015250565b7f455243313135353a207472616e7366657220746f206e6f6e2d4552433131353560008201527f526563656976657220696d706c656d656e746572000000000000000000000000602082015250565b600060443d1015612e0257612e85565b612e0a6126b2565b60043d036004823e80513d602482011167ffffffffffffffff82111715612e32575050612e85565b808201805167ffffffffffffffff811115612e505750505050612e85565b80602083010160043d038501811115612e6d575050505050612e85565b612e7c826020018501866128f4565b82955050505050505b90565b612e918161280c565b8114612e9c57600080fd5b50565b612ea88161281e565b8114612eb357600080fd5b50565b612ebf8161282a565b8114612eca57600080fd5b50565b612ed681612876565b8114612ee157600080fd5b5056fea2646970667358221220959d9f5b80fb5006dd8bab404bdf22ce352c31dae42c5a032f317519065672c164736f6c63430008040033",
  "linkReferences": {},
  "deployedLinkReferences": {}
}