{
  "_format": "hh-sol-artifact-1",
  "contractName": "Bridge",
  "sourceName": "contracts/BridgeContract.sol",
  "abi": [
    {
      "inputs": [
        {
          "internalType": "address",
          "name": "_wrappedBCT",
          "type": "address"
        },
        {
          "internalType": "address",
          "name": "_bct",
          "type": "address"
        },
        {
          "internalType": "string",
          "name": "_uri",
          "type": "string"
        }
      ],
      "stateMutability": "nonpayable",
      "type": "constructor"
    },
    {
      "anonymous": false,
      "inputs": [
        {
          "indexed": true,
          "internalType": "address",
          "name": "previousOwner",
          "type": "address"
        },
        {
          "indexed": true,
          "internalType": "address",
          "name": "newOwner",
          "type": "address"
        }
      ],
      "name": "OwnershipTransferred",
      "type": "event"
    },
    {
      "inputs": [
        {
          "internalType": "address",
          "name": "wrapperAddress",
          "type": "address"
        }
      ],
      "name": "addSupportedWrapper",
      "outputs": [],
      "stateMutability": "nonpayable",
      "type": "function"
    },
    {
      "inputs": [],
      "name": "bct",
      "outputs": [
        {
          "internalType": "contract IERC20",
          "name": "",
          "type": "address"
        }
      ],
      "stateMutability": "view",
      "type": "function"
    },
    {
      "inputs": [],
      "name": "erc1155Token",
      "outputs": [
        {
          "internalType": "contract ERC1155Token",
          "name": "",
          "type": "address"
        }
      ],
      "stateMutability": "view",
      "type": "function"
    },
    {
      "inputs": [],
      "name": "owner",
      "outputs": [
        {
          "internalType": "address",
          "name": "",
          "type": "address"
        }
      ],
      "stateMutability": "view",
      "type": "function"
    },
    {
      "inputs": [
        {
          "internalType": "address",
          "name": "wrapperAddress",
          "type": "address"
        }
      ],
      "name": "removeSupportedWrapper",
      "outputs": [],
      "stateMutability": "nonpayable",
      "type": "function"
    },
    {
      "inputs": [],
      "name": "renounceOwnership",
      "outputs": [],
      "stateMutability": "nonpayable",
      "type": "function"
    },
    {
      "inputs": [
        {
          "internalType": "address",
          "name": "",
          "type": "address"
        }
      ],
      "name": "supportedWrappers",
      "outputs": [
        {
          "internalType": "bool",
          "name": "",
          "type": "bool"
        }
      ],
      "stateMutability": "view",
      "type": "function"
    },
    {
      "inputs": [
        {
          "internalType": "address",
          "name": "newOwner",
          "type": "address"
        }
      ],
      "name": "transferOwnership",
      "outputs": [],
      "stateMutability": "nonpayable",
      "type": "function"
    },
    {
      "inputs": [
        {
          "internalType": "address",
          "name": "wrapperAddress",
          "type": "address"
        },
        {
          "internalType": "uint256",
          "name": "amount",
          "type": "uint256"
        }
      ],
      "name": "unwrapTokens",
      "outputs": [],
      "stateMutability": "nonpayable",
      "type": "function"
    },
    {
      "inputs": [
        {
          "internalType": "address",
          "name": "wrapperAddress",
          "type": "address"
        },
        {
          "internalType": "uint256",
          "name": "amount",
          "type": "uint256"
        }
      ],
      "name": "wrapTokens",
      "outputs": [],
      "stateMutability": "nonpayable",
      "type": "function"
    },
    {
      "inputs": [],
      "name": "wrappedBCT",
      "outputs": [
        {
          "internalType": "contract WrappedBCT",
          "name": "",
          "type": "address"
        }
      ],
      "stateMutability": "view",
      "type": "function"
    }
  ],
  "bytecode": "0x60806040523480156200001157600080fd5b5060405162004d2638038062004d268339818101604052810190620000379190620002be565b620000576200004b6200015b60201b60201c565b6200016360201b60201c565b82600260006101000a81548173ffffffffffffffffffffffffffffffffffffffff021916908373ffffffffffffffffffffffffffffffffffffffff16021790555081600360006101000a81548173ffffffffffffffffffffffffffffffffffffffff021916908373ffffffffffffffffffffffffffffffffffffffff16021790555080604051620000e89062000227565b620000f491906200036e565b604051809103906000f08015801562000111573d6000803e3d6000fd5b50600160006101000a81548173ffffffffffffffffffffffffffffffffffffffff021916908373ffffffffffffffffffffffffffffffffffffffff16021790555050505062000507565b600033905090565b60008060009054906101000a900473ffffffffffffffffffffffffffffffffffffffff169050816000806101000a81548173ffffffffffffffffffffffffffffffffffffffff021916908373ffffffffffffffffffffffffffffffffffffffff1602179055508173ffffffffffffffffffffffffffffffffffffffff168173ffffffffffffffffffffffffffffffffffffffff167f8be0079c531659141344cd1fd0a4f28419497f9722a3daafe3b4186f6b6457e060405160405180910390a35050565b61397680620013b083390190565b60006200024c6200024684620003bb565b62000392565b9050828152602081018484840111156200026557600080fd5b6200027284828562000441565b509392505050565b6000815190506200028b81620004ed565b92915050565b600082601f830112620002a357600080fd5b8151620002b584826020860162000235565b91505092915050565b600080600060608486031215620002d457600080fd5b6000620002e4868287016200027a565b9350506020620002f7868287016200027a565b925050604084015167ffffffffffffffff8111156200031557600080fd5b620003238682870162000291565b9150509250925092565b60006200033a82620003f1565b620003468185620003fc565b93506200035881856020860162000441565b6200036381620004dc565b840191505092915050565b600060208201905081810360008301526200038a81846200032d565b905092915050565b60006200039e620003b1565b9050620003ac828262000477565b919050565b6000604051905090565b600067ffffffffffffffff821115620003d957620003d8620004ad565b5b620003e482620004dc565b9050602081019050919050565b600081519050919050565b600082825260208201905092915050565b60006200041a8262000421565b9050919050565b600073ffffffffffffffffffffffffffffffffffffffff82169050919050565b60005b838110156200046157808201518184015260208101905062000444565b8381111562000471576000848401525b50505050565b6200048282620004dc565b810181811067ffffffffffffffff82111715620004a457620004a3620004ad565b5b80604052505050565b7f4e487b7100000000000000000000000000000000000000000000000000000000600052604160045260246000fd5b6000601f19601f8301169050919050565b620004f8816200040d565b81146200050457600080fd5b50565b610e9980620005176000396000f3fe608060405234801561001057600080fd5b50600436106100a95760003560e01c8063a3fe88b511610071578063a3fe88b51461012e578063c26de1aa1461014a578063ce4a1c7f14610166578063e121433f14610184578063eebd1021146101b4578063f2fde38b146101d0576100a9565b806321f42268146100ae578063715018a6146100cc5780637ae381a5146100d65780638da5cb5b146100f4578063a084bccf14610112575b600080fd5b6100b66101ec565b6040516100c39190610c0a565b60405180910390f35b6100d4610212565b005b6100de610226565b6040516100eb9190610c40565b60405180910390f35b6100fc61024c565b6040516101099190610b2a565b60405180910390f35b61012c600480360381019061012791906109df565b610275565b005b610148600480360381019061014391906109b6565b61048c565b005b610164600480360381019061015f91906109b6565b6104ef565b005b61016e610552565b60405161017b9190610c25565b60405180910390f35b61019e600480360381019061019991906109b6565b610578565b6040516101ab9190610bef565b60405180910390f35b6101ce60048036038101906101c991906109df565b610598565b005b6101ea60048036038101906101e591906109b6565b6107a9565b005b600160009054906101000a900473ffffffffffffffffffffffffffffffffffffffff1681565b61021a61082d565b61022460006108ab565b565b600260009054906101000a900473ffffffffffffffffffffffffffffffffffffffff1681565b60008060009054906101000a900473ffffffffffffffffffffffffffffffffffffffff16905090565b600460008373ffffffffffffffffffffffffffffffffffffffff1673ffffffffffffffffffffffffffffffffffffffff16815260200190815260200160002060009054906101000a900460ff16610301576040517f08c379a00000000000000000000000000000000000000000000000000000000081526004016102f890610c9b565b60405180910390fd5b60008290508073ffffffffffffffffffffffffffffffffffffffff1663bf376c7a33846040518363ffffffff1660e01b8152600401610341929190610b45565b600060405180830381600087803b15801561035b57600080fd5b505af115801561036f573d6000803e3d6000fd5b5050505060008173ffffffffffffffffffffffffffffffffffffffff1663010a38f56040518163ffffffff1660e01b815260040160206040518083038186803b1580156103bb57600080fd5b505afa1580156103cf573d6000803e3d6000fd5b505050506040513d601f19601f820116820180604052508101906103f39190610a1b565b9050600160009054906101000a900473ffffffffffffffffffffffffffffffffffffffff1673ffffffffffffffffffffffffffffffffffffffff1663731133e93383866040518463ffffffff1660e01b815260040161045493929190610ba5565b600060405180830381600087803b15801561046e57600080fd5b505af1158015610482573d6000803e3d6000fd5b5050505050505050565b61049461082d565b6001600460008373ffffffffffffffffffffffffffffffffffffffff1673ffffffffffffffffffffffffffffffffffffffff16815260200190815260200160002060006101000a81548160ff02191690831515021790555050565b6104f761082d565b6000600460008373ffffffffffffffffffffffffffffffffffffffff1673ffffffffffffffffffffffffffffffffffffffff16815260200190815260200160002060006101000a81548160ff02191690831515021790555050565b600360009054906101000a900473ffffffffffffffffffffffffffffffffffffffff1681565b60046020528060005260406000206000915054906101000a900460ff1681565b600460008373ffffffffffffffffffffffffffffffffffffffff1673ffffffffffffffffffffffffffffffffffffffff16815260200190815260200160002060009054906101000a900460ff16610624576040517f08c379a000000000000000000000000000000000000000000000000000000000815260040161061b90610c9b565b60405180910390fd5b60008290508073ffffffffffffffffffffffffffffffffffffffff166339f4769333846040518363ffffffff1660e01b8152600401610664929190610b45565b600060405180830381600087803b15801561067e57600080fd5b505af1158015610692573d6000803e3d6000fd5b50505050600160009054906101000a900473ffffffffffffffffffffffffffffffffffffffff1673ffffffffffffffffffffffffffffffffffffffff1663f5298aca338373ffffffffffffffffffffffffffffffffffffffff1663010a38f56040518163ffffffff1660e01b815260040160206040518083038186803b15801561071b57600080fd5b505afa15801561072f573d6000803e3d6000fd5b505050506040513d601f19601f820116820180604052508101906107539190610a1b565b856040518463ffffffff1660e01b815260040161077293929190610b6e565b600060405180830381600087803b15801561078c57600080fd5b505af11580156107a0573d6000803e3d6000fd5b50505050505050565b6107b161082d565b600073ffffffffffffffffffffffffffffffffffffffff168173ffffffffffffffffffffffffffffffffffffffff161415610821576040517f08c379a000000000000000000000000000000000000000000000000000000000815260040161081890610c5b565b60405180910390fd5b61082a816108ab565b50565b61083561096f565b73ffffffffffffffffffffffffffffffffffffffff1661085361024c565b73ffffffffffffffffffffffffffffffffffffffff16146108a9576040517f08c379a00000000000000000000000000000000000000000000000000000000081526004016108a090610c7b565b60405180910390fd5b565b60008060009054906101000a900473ffffffffffffffffffffffffffffffffffffffff169050816000806101000a81548173ffffffffffffffffffffffffffffffffffffffff021916908373ffffffffffffffffffffffffffffffffffffffff1602179055508173ffffffffffffffffffffffffffffffffffffffff168173ffffffffffffffffffffffffffffffffffffffff167f8be0079c531659141344cd1fd0a4f28419497f9722a3daafe3b4186f6b6457e060405160405180910390a35050565b600033905090565b60008135905061098681610e35565b92915050565b60008135905061099b81610e4c565b92915050565b6000815190506109b081610e4c565b92915050565b6000602082840312156109c857600080fd5b60006109d684828501610977565b91505092915050565b600080604083850312156109f257600080fd5b6000610a0085828601610977565b9250506020610a118582860161098c565b9150509250929050565b600060208284031215610a2d57600080fd5b6000610a3b848285016109a1565b91505092915050565b610a4d81610cdd565b82525050565b610a5c81610cef565b82525050565b610a6b81610d25565b82525050565b610a7a81610d49565b82525050565b610a8981610d6d565b82525050565b6000610a9c602683610ccc565b9150610aa782610d91565b604082019050919050565b6000610abf602083610ccc565b9150610aca82610de0565b602082019050919050565b6000610ae2601b83610ccc565b9150610aed82610e09565b602082019050919050565b6000610b05600083610cbb565b9150610b1082610e32565b600082019050919050565b610b2481610d1b565b82525050565b6000602082019050610b3f6000830184610a44565b92915050565b6000604082019050610b5a6000830185610a44565b610b676020830184610b1b565b9392505050565b6000606082019050610b836000830186610a44565b610b906020830185610b1b565b610b9d6040830184610b1b565b949350505050565b6000608082019050610bba6000830186610a44565b610bc76020830185610b1b565b610bd46040830184610b1b565b8181036060830152610be581610af8565b9050949350505050565b6000602082019050610c046000830184610a53565b92915050565b6000602082019050610c1f6000830184610a62565b92915050565b6000602082019050610c3a6000830184610a71565b92915050565b6000602082019050610c556000830184610a80565b92915050565b60006020820190508181036000830152610c7481610a8f565b9050919050565b60006020820190508181036000830152610c9481610ab2565b9050919050565b60006020820190508181036000830152610cb481610ad5565b9050919050565b600082825260208201905092915050565b600082825260208201905092915050565b6000610ce882610cfb565b9050919050565b60008115159050919050565b600073ffffffffffffffffffffffffffffffffffffffff82169050919050565b6000819050919050565b6000610d3082610d37565b9050919050565b6000610d4282610cfb565b9050919050565b6000610d5482610d5b565b9050919050565b6000610d6682610cfb565b9050919050565b6000610d7882610d7f565b9050919050565b6000610d8a82610cfb565b9050919050565b7f4f776e61626c653a206e6577206f776e657220697320746865207a65726f206160008201527f6464726573730000000000000000000000000000000000000000000000000000602082015250565b7f4f776e61626c653a2063616c6c6572206973206e6f7420746865206f776e6572600082015250565b7f4272696467653a20556e737570706f7274656420777261707065720000000000600082015250565b50565b610e3e81610cdd565b8114610e4957600080fd5b50565b610e5581610d1b565b8114610e6057600080fd5b5056fea26469706673582212204ce6e6f8ff79ec7501483ccc2c2a56fc586adee7ce7f8552756aee407dd2986a64736f6c63430008040033608060405260016004553480156200001657600080fd5b50604051620039763803806200397683398181016040528101906200003c919062000282565b806200004e816200007660201b60201c565b506200006f620000636200009260201b60201c565b6200009a60201b60201c565b5062000437565b80600290805190602001906200008e92919062000160565b5050565b600033905090565b6000600360009054906101000a900473ffffffffffffffffffffffffffffffffffffffff16905081600360006101000a81548173ffffffffffffffffffffffffffffffffffffffff021916908373ffffffffffffffffffffffffffffffffffffffff1602179055508173ffffffffffffffffffffffffffffffffffffffff168173ffffffffffffffffffffffffffffffffffffffff167f8be0079c531659141344cd1fd0a4f28419497f9722a3daafe3b4186f6b6457e060405160405180910390a35050565b8280546200016e906200035c565b90600052602060002090601f016020900481019282620001925760008555620001de565b82601f10620001ad57805160ff1916838001178555620001de565b82800160010185558215620001de579182015b82811115620001dd578251825591602001919060010190620001c0565b5b509050620001ed9190620001f1565b5090565b5b808211156200020c576000816000905550600101620001f2565b5090565b6000620002276200022184620002f0565b620002c7565b9050828152602081018484840111156200024057600080fd5b6200024d84828562000326565b509392505050565b600082601f8301126200026757600080fd5b81516200027984826020860162000210565b91505092915050565b6000602082840312156200029557600080fd5b600082015167ffffffffffffffff811115620002b057600080fd5b620002be8482850162000255565b91505092915050565b6000620002d3620002e6565b9050620002e1828262000392565b919050565b6000604051905090565b600067ffffffffffffffff8211156200030e576200030d620003f7565b5b620003198262000426565b9050602081019050919050565b60005b838110156200034657808201518184015260208101905062000329565b8381111562000356576000848401525b50505050565b600060028204905060018216806200037557607f821691505b602082108114156200038c576200038b620003c8565b5b50919050565b6200039d8262000426565b810181811067ffffffffffffffff82111715620003bf57620003be620003f7565b5b80604052505050565b7f4e487b7100000000000000000000000000000000000000000000000000000000600052602260045260246000fd5b7f4e487b7100000000000000000000000000000000000000000000000000000000600052604160045260246000fd5b6000601f19601f8301169050919050565b61352f80620004476000396000f3fe608060405234801561001057600080fd5b50600436106100ff5760003560e01c8063731133e911610097578063e985e9c511610066578063e985e9c514610294578063f242432a146102c4578063f2fde38b146102e0578063f5298aca146102fc576100ff565b8063731133e9146102225780638da5cb5b1461023e578063a22cb4651461025c578063bd8881bb14610278576100ff565b80632eb2c2d6116100d35780632eb2c2d6146101b05780634e1273f4146101cc5780635fbc1c6e146101fc578063715018a614610218576100ff565b8062fdd58e1461010457806301ffc9a71461013457806302fe5305146101645780630e89341c14610180575b600080fd5b61011e6004803603810190610119919061225a565b610318565b60405161012b9190612b73565b60405180910390f35b61014e60048036038101906101499190612433565b6103e1565b60405161015b9190612956565b60405180910390f35b61017e60048036038101906101799190612485565b6104c3565b005b61019a600480360381019061019591906124c6565b6104d7565b6040516101a79190612971565b60405180910390f35b6101ca60048036038101906101c5919061207c565b61056b565b005b6101e660048036038101906101e191906123c7565b61060c565b6040516101f391906128fd565b60405180910390f35b61021660048036038101906102119190612206565b6107bd565b005b6102206107f2565b005b61023c6004803603810190610237919061234c565b610806565b005b6102466108c3565b6040516102539190612820565b60405180910390f35b610276600480360381019061027191906121ca565b6108ed565b005b610292600480360381019061028d9190612296565b610903565b005b6102ae60048036038101906102a99190612040565b610938565b6040516102bb9190612956565b60405180910390f35b6102de60048036038101906102d9919061213b565b6109cc565b005b6102fa60048036038101906102f59190612017565b610a6d565b005b610316600480360381019061031191906122fd565b610af1565b005b60008073ffffffffffffffffffffffffffffffffffffffff168373ffffffffffffffffffffffffffffffffffffffff161415610389576040517f08c379a0000000000000000000000000000000000000000000000000000000008152600401610380906129f3565b60405180910390fd5b60008083815260200190815260200160002060008473ffffffffffffffffffffffffffffffffffffffff1673ffffffffffffffffffffffffffffffffffffffff16815260200190815260200160002054905092915050565b60007fd9b67a26000000000000000000000000000000000000000000000000000000007bffffffffffffffffffffffffffffffffffffffffffffffffffffffff1916827bffffffffffffffffffffffffffffffffffffffffffffffffffffffff191614806104ac57507f0e89341c000000000000000000000000000000000000000000000000000000007bffffffffffffffffffffffffffffffffffffffffffffffffffffffff1916827bffffffffffffffffffffffffffffffffffffffffffffffffffffffff1916145b806104bc57506104bb82610b09565b5b9050919050565b6104cb610b73565b6104d481610bf1565b50565b6060600280546104e690612e13565b80601f016020809104026020016040519081016040528092919081815260200182805461051290612e13565b801561055f5780601f106105345761010080835404028352916020019161055f565b820191906000526020600020905b81548152906001019060200180831161054257829003601f168201915b50505050509050919050565b610573610c0b565b73ffffffffffffffffffffffffffffffffffffffff168573ffffffffffffffffffffffffffffffffffffffff1614806105b957506105b8856105b3610c0b565b610938565b5b6105f8576040517f08c379a00000000000000000000000000000000000000000000000000000000081526004016105ef90612a13565b60405180910390fd5b6106058585858585610c13565b5050505050565b60608151835114610652576040517f08c379a000000000000000000000000000000000000000000000000000000000815260040161064990612af3565b60405180910390fd5b6000835167ffffffffffffffff811115610695577f4e487b7100000000000000000000000000000000000000000000000000000000600052604160045260246000fd5b6040519080825280602002602001820160405280156106c35781602001602082028036833780820191505090505b50905060005b84518110156107b25761075c85828151811061070e577f4e487b7100000000000000000000000000000000000000000000000000000000600052603260045260246000fd5b602002602001015185838151811061074f577f4e487b7100000000000000000000000000000000000000000000000000000000600052603260045260246000fd5b6020026020010151610318565b828281518110610795577f4e487b7100000000000000000000000000000000000000000000000000000000600052603260045260246000fd5b602002602001018181525050806107ab90612e76565b90506106c9565b508091505092915050565b6107c5610b73565b6107d482600454600184610f81565b6001600460008282546107e79190612d07565b925050819055505050565b6107fa610b73565b6108046000611132565b565b61080e6108c3565b73ffffffffffffffffffffffffffffffffffffffff163373ffffffffffffffffffffffffffffffffffffffff16148061087257503073ffffffffffffffffffffffffffffffffffffffff163373ffffffffffffffffffffffffffffffffffffffff16145b6108b1576040517f08c379a00000000000000000000000000000000000000000000000000000000081526004016108a890612ab3565b60405180910390fd5b6108bd84848484610f81565b50505050565b6000600360009054906101000a900473ffffffffffffffffffffffffffffffffffffffff16905090565b6108ff6108f8610c0b565b83836111f8565b5050565b61090b610b73565b610919836004548484610f81565b60016004600082825461092c9190612d07565b92505081905550505050565b6000600160008473ffffffffffffffffffffffffffffffffffffffff1673ffffffffffffffffffffffffffffffffffffffff16815260200190815260200160002060008373ffffffffffffffffffffffffffffffffffffffff1673ffffffffffffffffffffffffffffffffffffffff16815260200190815260200160002060009054906101000a900460ff16905092915050565b6109d4610c0b565b73ffffffffffffffffffffffffffffffffffffffff168573ffffffffffffffffffffffffffffffffffffffff161480610a1a5750610a1985610a14610c0b565b610938565b5b610a59576040517f08c379a0000000000000000000000000000000000000000000000000000000008152600401610a5090612a13565b60405180910390fd5b610a668585858585611365565b5050505050565b610a75610b73565b600073ffffffffffffffffffffffffffffffffffffffff168173ffffffffffffffffffffffffffffffffffffffff161415610ae5576040517f08c379a0000000000000000000000000000000000000000000000000000000008152600401610adc906129b3565b60405180910390fd5b610aee81611132565b50565b610af9610b73565b610b04838383611601565b505050565b60007f01ffc9a7000000000000000000000000000000000000000000000000000000007bffffffffffffffffffffffffffffffffffffffffffffffffffffffff1916827bffffffffffffffffffffffffffffffffffffffffffffffffffffffff1916149050919050565b610b7b610c0b565b73ffffffffffffffffffffffffffffffffffffffff16610b996108c3565b73ffffffffffffffffffffffffffffffffffffffff1614610bef576040517f08c379a0000000000000000000000000000000000000000000000000000000008152600401610be690612a93565b60405180910390fd5b565b8060029080519060200190610c07929190611d0f565b5050565b600033905090565b8151835114610c57576040517f08c379a0000000000000000000000000000000000000000000000000000000008152600401610c4e90612b13565b60405180910390fd5b600073ffffffffffffffffffffffffffffffffffffffff168473ffffffffffffffffffffffffffffffffffffffff161415610cc7576040517f08c379a0000000000000000000000000000000000000000000000000000000008152600401610cbe90612a33565b60405180910390fd5b6000610cd1610c0b565b9050610ce1818787878787611848565b60005b8451811015610ede576000858281518110610d28577f4e487b7100000000000000000000000000000000000000000000000000000000600052603260045260246000fd5b602002602001015190506000858381518110610d6d577f4e487b7100000000000000000000000000000000000000000000000000000000600052603260045260246000fd5b60200260200101519050600080600084815260200190815260200160002060008b73ffffffffffffffffffffffffffffffffffffffff1673ffffffffffffffffffffffffffffffffffffffff16815260200190815260200160002054905081811015610e0e576040517f08c379a0000000000000000000000000000000000000000000000000000000008152600401610e0590612a73565b60405180910390fd5b81810360008085815260200190815260200160002060008c73ffffffffffffffffffffffffffffffffffffffff1673ffffffffffffffffffffffffffffffffffffffff168152602001908152602001600020819055508160008085815260200190815260200160002060008b73ffffffffffffffffffffffffffffffffffffffff1673ffffffffffffffffffffffffffffffffffffffff1681526020019081526020016000206000828254610ec39190612d07565b9250508190555050505080610ed790612e76565b9050610ce4565b508473ffffffffffffffffffffffffffffffffffffffff168673ffffffffffffffffffffffffffffffffffffffff168273ffffffffffffffffffffffffffffffffffffffff167f4a39dc06d4c0dbc64b70af90fd698a233a518aa5d07e595d983b8c0526c8f7fb8787604051610f5592919061291f565b60405180910390a4610f6b818787878787611850565b610f79818787878787611858565b505050505050565b600073ffffffffffffffffffffffffffffffffffffffff168473ffffffffffffffffffffffffffffffffffffffff161415610ff1576040517f08c379a0000000000000000000000000000000000000000000000000000000008152600401610fe890612b33565b60405180910390fd5b6000610ffb610c0b565b9050600061100885611a3f565b9050600061101585611a3f565b905061102683600089858589611848565b8460008088815260200190815260200160002060008973ffffffffffffffffffffffffffffffffffffffff1673ffffffffffffffffffffffffffffffffffffffff16815260200190815260200160002060008282546110859190612d07565b925050819055508673ffffffffffffffffffffffffffffffffffffffff16600073ffffffffffffffffffffffffffffffffffffffff168473ffffffffffffffffffffffffffffffffffffffff167fc3d58168c5ae7397731d063d5bbf3d657854427343f4c083240f7aacaa2d0f628989604051611103929190612b8e565b60405180910390a461111a83600089858589611850565b61112983600089898989611b05565b50505050505050565b6000600360009054906101000a900473ffffffffffffffffffffffffffffffffffffffff16905081600360006101000a81548173ffffffffffffffffffffffffffffffffffffffff021916908373ffffffffffffffffffffffffffffffffffffffff1602179055508173ffffffffffffffffffffffffffffffffffffffff168173ffffffffffffffffffffffffffffffffffffffff167f8be0079c531659141344cd1fd0a4f28419497f9722a3daafe3b4186f6b6457e060405160405180910390a35050565b8173ffffffffffffffffffffffffffffffffffffffff168373ffffffffffffffffffffffffffffffffffffffff161415611267576040517f08c379a000000000000000000000000000000000000000000000000000000000815260040161125e90612ad3565b60405180910390fd5b80600160008573ffffffffffffffffffffffffffffffffffffffff1673ffffffffffffffffffffffffffffffffffffffff16815260200190815260200160002060008473ffffffffffffffffffffffffffffffffffffffff1673ffffffffffffffffffffffffffffffffffffffff16815260200190815260200160002060006101000a81548160ff0219169083151502179055508173ffffffffffffffffffffffffffffffffffffffff168373ffffffffffffffffffffffffffffffffffffffff167f17307eab39ab6107e8899845ad3d59bd9653f200f220920489ca2b5937696c31836040516113589190612956565b60405180910390a3505050565b600073ffffffffffffffffffffffffffffffffffffffff168473ffffffffffffffffffffffffffffffffffffffff1614156113d5576040517f08c379a00000000000000000000000000000000000000000000000000000000081526004016113cc90612a33565b60405180910390fd5b60006113df610c0b565b905060006113ec85611a3f565b905060006113f985611a3f565b9050611409838989858589611848565b600080600088815260200190815260200160002060008a73ffffffffffffffffffffffffffffffffffffffff1673ffffffffffffffffffffffffffffffffffffffff168152602001908152602001600020549050858110156114a0576040517f08c379a000000000000000000000000000000000000000000000000000000000815260040161149790612a73565b60405180910390fd5b85810360008089815260200190815260200160002060008b73ffffffffffffffffffffffffffffffffffffffff1673ffffffffffffffffffffffffffffffffffffffff168152602001908152602001600020819055508560008089815260200190815260200160002060008a73ffffffffffffffffffffffffffffffffffffffff1673ffffffffffffffffffffffffffffffffffffffff16815260200190815260200160002060008282546115559190612d07565b925050819055508773ffffffffffffffffffffffffffffffffffffffff168973ffffffffffffffffffffffffffffffffffffffff168573ffffffffffffffffffffffffffffffffffffffff167fc3d58168c5ae7397731d063d5bbf3d657854427343f4c083240f7aacaa2d0f628a8a6040516115d2929190612b8e565b60405180910390a46115e8848a8a86868a611850565b6115f6848a8a8a8a8a611b05565b505050505050505050565b600073ffffffffffffffffffffffffffffffffffffffff168373ffffffffffffffffffffffffffffffffffffffff161415611671576040517f08c379a000000000000000000000000000000000000000000000000000000000815260040161166890612a53565b60405180910390fd5b600061167b610c0b565b9050600061168884611a3f565b9050600061169584611a3f565b90506116b583876000858560405180602001604052806000815250611848565b600080600087815260200190815260200160002060008873ffffffffffffffffffffffffffffffffffffffff1673ffffffffffffffffffffffffffffffffffffffff1681526020019081526020016000205490508481101561174c576040517f08c379a0000000000000000000000000000000000000000000000000000000008152600401611743906129d3565b60405180910390fd5b84810360008088815260200190815260200160002060008973ffffffffffffffffffffffffffffffffffffffff1673ffffffffffffffffffffffffffffffffffffffff16815260200190815260200160002081905550600073ffffffffffffffffffffffffffffffffffffffff168773ffffffffffffffffffffffffffffffffffffffff168573ffffffffffffffffffffffffffffffffffffffff167fc3d58168c5ae7397731d063d5bbf3d657854427343f4c083240f7aacaa2d0f628989604051611819929190612b8e565b60405180910390a461183f84886000868660405180602001604052806000815250611850565b50505050505050565b505050505050565b505050505050565b6118778473ffffffffffffffffffffffffffffffffffffffff16611cec565b15611a37578373ffffffffffffffffffffffffffffffffffffffff1663bc197c8187878686866040518663ffffffff1660e01b81526004016118bd95949392919061283b565b602060405180830381600087803b1580156118d757600080fd5b505af192505050801561190857506040513d601f19601f82011682018060405250810190611905919061245c565b60015b6119ae57611914612f4c565b806308c379a014156119715750611929613407565b806119345750611973565b806040517f08c379a00000000000000000000000000000000000000000000000000000000081526004016119689190612971565b60405180910390fd5b505b6040517f08c379a00000000000000000000000000000000000000000000000000000000081526004016119a590612b53565b60405180910390fd5b63bc197c8160e01b7bffffffffffffffffffffffffffffffffffffffffffffffffffffffff1916817bffffffffffffffffffffffffffffffffffffffffffffffffffffffff191614611a35576040517f08c379a0000000000000000000000000000000000000000000000000000000008152600401611a2c90612993565b60405180910390fd5b505b505050505050565b60606000600167ffffffffffffffff811115611a84577f4e487b7100000000000000000000000000000000000000000000000000000000600052604160045260246000fd5b604051908082528060200260200182016040528015611ab25781602001602082028036833780820191505090505b5090508281600081518110611af0577f4e487b7100000000000000000000000000000000000000000000000000000000600052603260045260246000fd5b60200260200101818152505080915050919050565b611b248473ffffffffffffffffffffffffffffffffffffffff16611cec565b15611ce4578373ffffffffffffffffffffffffffffffffffffffff1663f23a6e6187878686866040518663ffffffff1660e01b8152600401611b6a9594939291906128a3565b602060405180830381600087803b158015611b8457600080fd5b505af1925050508015611bb557506040513d601f19601f82011682018060405250810190611bb2919061245c565b60015b611c5b57611bc1612f4c565b806308c379a01415611c1e5750611bd6613407565b80611be15750611c20565b806040517f08c379a0000000000000000000000000000000000000000000000000000000008152600401611c159190612971565b60405180910390fd5b505b6040517f08c379a0000000000000000000000000000000000000000000000000000000008152600401611c5290612b53565b60405180910390fd5b63f23a6e6160e01b7bffffffffffffffffffffffffffffffffffffffffffffffffffffffff1916817bffffffffffffffffffffffffffffffffffffffffffffffffffffffff191614611ce2576040517f08c379a0000000000000000000000000000000000000000000000000000000008152600401611cd990612993565b60405180910390fd5b505b505050505050565b6000808273ffffffffffffffffffffffffffffffffffffffff163b119050919050565b828054611d1b90612e13565b90600052602060002090601f016020900481019282611d3d5760008555611d84565b82601f10611d5657805160ff1916838001178555611d84565b82800160010185558215611d84579182015b82811115611d83578251825591602001919060010190611d68565b5b509050611d919190611d95565b5090565b5b80821115611dae576000816000905550600101611d96565b5090565b6000611dc5611dc084612bdc565b612bb7565b90508083825260208201905082856020860282011115611de457600080fd5b60005b85811015611e145781611dfa8882611f06565b845260208401935060208301925050600181019050611de7565b5050509392505050565b6000611e31611e2c84612c08565b612bb7565b90508083825260208201905082856020860282011115611e5057600080fd5b60005b85811015611e805781611e668882612002565b845260208401935060208301925050600181019050611e53565b5050509392505050565b6000611e9d611e9884612c34565b612bb7565b905082815260208101848484011115611eb557600080fd5b611ec0848285612dd1565b509392505050565b6000611edb611ed684612c65565b612bb7565b905082815260208101848484011115611ef357600080fd5b611efe848285612dd1565b509392505050565b600081359050611f158161349d565b92915050565b600082601f830112611f2c57600080fd5b8135611f3c848260208601611db2565b91505092915050565b600082601f830112611f5657600080fd5b8135611f66848260208601611e1e565b91505092915050565b600081359050611f7e816134b4565b92915050565b600081359050611f93816134cb565b92915050565b600081519050611fa8816134cb565b92915050565b600082601f830112611fbf57600080fd5b8135611fcf848260208601611e8a565b91505092915050565b600082601f830112611fe957600080fd5b8135611ff9848260208601611ec8565b91505092915050565b600081359050612011816134e2565b92915050565b60006020828403121561202957600080fd5b600061203784828501611f06565b91505092915050565b6000806040838503121561205357600080fd5b600061206185828601611f06565b925050602061207285828601611f06565b9150509250929050565b600080600080600060a0868803121561209457600080fd5b60006120a288828901611f06565b95505060206120b388828901611f06565b945050604086013567ffffffffffffffff8111156120d057600080fd5b6120dc88828901611f45565b935050606086013567ffffffffffffffff8111156120f957600080fd5b61210588828901611f45565b925050608086013567ffffffffffffffff81111561212257600080fd5b61212e88828901611fae565b9150509295509295909350565b600080600080600060a0868803121561215357600080fd5b600061216188828901611f06565b955050602061217288828901611f06565b945050604061218388828901612002565b935050606061219488828901612002565b925050608086013567ffffffffffffffff8111156121b157600080fd5b6121bd88828901611fae565b9150509295509295909350565b600080604083850312156121dd57600080fd5b60006121eb85828601611f06565b92505060206121fc85828601611f6f565b9150509250929050565b6000806040838503121561221957600080fd5b600061222785828601611f06565b925050602083013567ffffffffffffffff81111561224457600080fd5b61225085828601611fae565b9150509250929050565b6000806040838503121561226d57600080fd5b600061227b85828601611f06565b925050602061228c85828601612002565b9150509250929050565b6000806000606084860312156122ab57600080fd5b60006122b986828701611f06565b93505060206122ca86828701612002565b925050604084013567ffffffffffffffff8111156122e757600080fd5b6122f386828701611fae565b9150509250925092565b60008060006060848603121561231257600080fd5b600061232086828701611f06565b935050602061233186828701612002565b925050604061234286828701612002565b9150509250925092565b6000806000806080858703121561236257600080fd5b600061237087828801611f06565b945050602061238187828801612002565b935050604061239287828801612002565b925050606085013567ffffffffffffffff8111156123af57600080fd5b6123bb87828801611fae565b91505092959194509250565b600080604083850312156123da57600080fd5b600083013567ffffffffffffffff8111156123f457600080fd5b61240085828601611f1b565b925050602083013567ffffffffffffffff81111561241d57600080fd5b61242985828601611f45565b9150509250929050565b60006020828403121561244557600080fd5b600061245384828501611f84565b91505092915050565b60006020828403121561246e57600080fd5b600061247c84828501611f99565b91505092915050565b60006020828403121561249757600080fd5b600082013567ffffffffffffffff8111156124b157600080fd5b6124bd84828501611fd8565b91505092915050565b6000602082840312156124d857600080fd5b60006124e684828501612002565b91505092915050565b60006124fb8383612802565b60208301905092915050565b61251081612d5d565b82525050565b600061252182612ca6565b61252b8185612cd4565b935061253683612c96565b8060005b8381101561256757815161254e88826124ef565b975061255983612cc7565b92505060018101905061253a565b5085935050505092915050565b61257d81612d6f565b82525050565b600061258e82612cb1565b6125988185612ce5565b93506125a8818560208601612de0565b6125b181612f6e565b840191505092915050565b60006125c782612cbc565b6125d18185612cf6565b93506125e1818560208601612de0565b6125ea81612f6e565b840191505092915050565b6000612602602883612cf6565b915061260d82612f8c565b604082019050919050565b6000612625602683612cf6565b915061263082612fdb565b604082019050919050565b6000612648602483612cf6565b91506126538261302a565b604082019050919050565b600061266b602a83612cf6565b915061267682613079565b604082019050919050565b600061268e602e83612cf6565b9150612699826130c8565b604082019050919050565b60006126b1602583612cf6565b91506126bc82613117565b604082019050919050565b60006126d4602383612cf6565b91506126df82613166565b604082019050919050565b60006126f7602a83612cf6565b9150612702826131b5565b604082019050919050565b600061271a602083612cf6565b915061272582613204565b602082019050919050565b600061273d603f83612cf6565b91506127488261322d565b604082019050919050565b6000612760602983612cf6565b915061276b8261327c565b604082019050919050565b6000612783602983612cf6565b915061278e826132cb565b604082019050919050565b60006127a6602883612cf6565b91506127b18261331a565b604082019050919050565b60006127c9602183612cf6565b91506127d482613369565b604082019050919050565b60006127ec603483612cf6565b91506127f7826133b8565b604082019050919050565b61280b81612dc7565b82525050565b61281a81612dc7565b82525050565b60006020820190506128356000830184612507565b92915050565b600060a0820190506128506000830188612507565b61285d6020830187612507565b818103604083015261286f8186612516565b905081810360608301526128838185612516565b905081810360808301526128978184612583565b90509695505050505050565b600060a0820190506128b86000830188612507565b6128c56020830187612507565b6128d26040830186612811565b6128df6060830185612811565b81810360808301526128f18184612583565b90509695505050505050565b600060208201905081810360008301526129178184612516565b905092915050565b600060408201905081810360008301526129398185612516565b9050818103602083015261294d8184612516565b90509392505050565b600060208201905061296b6000830184612574565b92915050565b6000602082019050818103600083015261298b81846125bc565b905092915050565b600060208201905081810360008301526129ac816125f5565b9050919050565b600060208201905081810360008301526129cc81612618565b9050919050565b600060208201905081810360008301526129ec8161263b565b9050919050565b60006020820190508181036000830152612a0c8161265e565b9050919050565b60006020820190508181036000830152612a2c81612681565b9050919050565b60006020820190508181036000830152612a4c816126a4565b9050919050565b60006020820190508181036000830152612a6c816126c7565b9050919050565b60006020820190508181036000830152612a8c816126ea565b9050919050565b60006020820190508181036000830152612aac8161270d565b9050919050565b60006020820190508181036000830152612acc81612730565b9050919050565b60006020820190508181036000830152612aec81612753565b9050919050565b60006020820190508181036000830152612b0c81612776565b9050919050565b60006020820190508181036000830152612b2c81612799565b9050919050565b60006020820190508181036000830152612b4c816127bc565b9050919050565b60006020820190508181036000830152612b6c816127df565b9050919050565b6000602082019050612b886000830184612811565b92915050565b6000604082019050612ba36000830185612811565b612bb06020830184612811565b9392505050565b6000612bc1612bd2565b9050612bcd8282612e45565b919050565b6000604051905090565b600067ffffffffffffffff821115612bf757612bf6612f1d565b5b602082029050602081019050919050565b600067ffffffffffffffff821115612c2357612c22612f1d565b5b602082029050602081019050919050565b600067ffffffffffffffff821115612c4f57612c4e612f1d565b5b612c5882612f6e565b9050602081019050919050565b600067ffffffffffffffff821115612c8057612c7f612f1d565b5b612c8982612f6e565b9050602081019050919050565b6000819050602082019050919050565b600081519050919050565b600081519050919050565b600081519050919050565b6000602082019050919050565b600082825260208201905092915050565b600082825260208201905092915050565b600082825260208201905092915050565b6000612d1282612dc7565b9150612d1d83612dc7565b9250827fffffffffffffffffffffffffffffffffffffffffffffffffffffffffffffffff03821115612d5257612d51612ebf565b5b828201905092915050565b6000612d6882612da7565b9050919050565b60008115159050919050565b60007fffffffff0000000000000000000000000000000000000000000000000000000082169050919050565b600073ffffffffffffffffffffffffffffffffffffffff82169050919050565b6000819050919050565b82818337600083830152505050565b60005b83811015612dfe578082015181840152602081019050612de3565b83811115612e0d576000848401525b50505050565b60006002820490506001821680612e2b57607f821691505b60208210811415612e3f57612e3e612eee565b5b50919050565b612e4e82612f6e565b810181811067ffffffffffffffff82111715612e6d57612e6c612f1d565b5b80604052505050565b6000612e8182612dc7565b91507fffffffffffffffffffffffffffffffffffffffffffffffffffffffffffffffff821415612eb457612eb3612ebf565b5b600182019050919050565b7f4e487b7100000000000000000000000000000000000000000000000000000000600052601160045260246000fd5b7f4e487b7100000000000000000000000000000000000000000000000000000000600052602260045260246000fd5b7f4e487b7100000000000000000000000000000000000000000000000000000000600052604160045260246000fd5b600060033d1115612f6b5760046000803e612f68600051612f7f565b90505b90565b6000601f19601f8301169050919050565b60008160e01c9050919050565b7f455243313135353a204552433131353552656365697665722072656a6563746560008201527f6420746f6b656e73000000000000000000000000000000000000000000000000602082015250565b7f4f776e61626c653a206e6577206f776e657220697320746865207a65726f206160008201527f6464726573730000000000000000000000000000000000000000000000000000602082015250565b7f455243313135353a206275726e20616d6f756e7420657863656564732062616c60008201527f616e636500000000000000000000000000000000000000000000000000000000602082015250565b7f455243313135353a2061646472657373207a65726f206973206e6f742061207660008201527f616c6964206f776e657200000000000000000000000000000000000000000000602082015250565b7f455243313135353a2063616c6c6572206973206e6f7420746f6b656e206f776e60008201527f6572206f7220617070726f766564000000000000000000000000000000000000602082015250565b7f455243313135353a207472616e7366657220746f20746865207a65726f20616460008201527f6472657373000000000000000000000000000000000000000000000000000000602082015250565b7f455243313135353a206275726e2066726f6d20746865207a65726f206164647260008201527f6573730000000000000000000000000000000000000000000000000000000000602082015250565b7f455243313135353a20696e73756666696369656e742062616c616e636520666f60008201527f72207472616e7366657200000000000000000000000000000000000000000000602082015250565b7f4f776e61626c653a2063616c6c6572206973206e6f7420746865206f776e6572600082015250565b7f45524331313535546f6b656e3a204f6e6c79206f776e6572206f72207468652060008201527f636f6e747261637420697473656c662063616e206d696e7420746f6b656e7300602082015250565b7f455243313135353a2073657474696e6720617070726f76616c2073746174757360008201527f20666f722073656c660000000000000000000000000000000000000000000000602082015250565b7f455243313135353a206163636f756e747320616e6420696473206c656e67746860008201527f206d69736d617463680000000000000000000000000000000000000000000000602082015250565b7f455243313135353a2069647320616e6420616d6f756e7473206c656e6774682060008201527f6d69736d61746368000000000000000000000000000000000000000000000000602082015250565b7f455243313135353a206d696e7420746f20746865207a65726f2061646472657360008201527f7300000000000000000000000000000000000000000000000000000000000000602082015250565b7f455243313135353a207472616e7366657220746f206e6f6e2d4552433131353560008201527f526563656976657220696d706c656d656e746572000000000000000000000000602082015250565b600060443d10156134175761349a565b61341f612bd2565b60043d036004823e80513d602482011167ffffffffffffffff8211171561344757505061349a565b808201805167ffffffffffffffff811115613465575050505061349a565b80602083010160043d03850181111561348257505050505061349a565b61349182602001850186612e45565b82955050505050505b90565b6134a681612d5d565b81146134b157600080fd5b50565b6134bd81612d6f565b81146134c857600080fd5b50565b6134d481612d7b565b81146134df57600080fd5b50565b6134eb81612dc7565b81146134f657600080fd5b5056fea264697066735822122009ca81c627b4eb3c180ec3236fb17d4ecf1c85ef3f6abc4b842634b2251cad8d64736f6c63430008040033",
  "linkReferences": {},
  "deployedLinkReferences": {}
}